:020000040800F2
:10000000B80B0020490200084B320008A92A00085A
:1000100049320008111700089F3600080000000050
:100020000000000000000000000000002134000873
:100030001717000800000000813200082334000870
:1000400063020008630200086302000863020008FC
:1000500063020008630200086302000863020008EC
:1000600063020008630200086302000863020008DC
:1000700063020008630200086302000863020008CC
:1000800063020008630200086302000863020008BC
:1000900063020008630200086302000863020008AC
:1000A000630200086302000863020008630200089C
:1000B000630200086302000863020008630200088C
:1000C000630200086302000863020008630200087C
:1000D000630200086302000863020008630200086C
:1000E000630200086302000863020008630200085C
:1000F000630200086302000863020008630200084C
:10010000630200086302000863020008630200083B
:10011000630200086302000863020008630200082B
:10012000630200086302000863020008630200081B
:10013000630200086302000863020008630200080B
:1001400063020008630200086302000863020008FB
:1001500063020008630200086302000863020008EB
:1001600063020008630200086302000863020008DB
:100170006302000863020008630200080000000038
:10018000630200086302000800F002F800F04CF877
:100190000AA090E8000C82448344AAF10107DA45E2
:1001A00001D100F041F8AFF2090EBAE80F0013F0E8
:1001B000010F18BFFB1A43F001031847343A00003F
:1001C000543A0000103A24BF78C878C1FAD85207D0
:1001D00024BF30C830C144BF04680C6070470000C1
:1001E0000023002400250026103A28BF78C1FBD840
:1001F000520728BF30C148BF0B607047662903F023
:100200006584642900F0D480002070471FB503F096
:1002100058FC00F001FD04000020002103F0C4FBA5
:10022000E0601FBD10B510BD00F0F6FD1146FFF7F0
:10023000EDFF03F049FB00F014FE03B4FFF7F2FFFB
:1002400003BC00F057FE00000948804709480047FA
:10025000FEE7FEE7FEE7FEE7FEE7FEE7FEE7FEE776
:10026000FEE7FEE704480549054A064B70470000D3
:10027000C134000889010008B8050020B80B00202F
:10028000B8070020B807002053EA020C00F069808C
:100290002DE9F04B4FF00006002B1FBFB3FA83F59A
:1002A00003FA05F424FA05F65E4012BF1643B2FACB
:1002B00082F502FA05F4C5F120051EBF22FA05FCFD
:1002C00044EA0C04203556EA044C4FEA144418BFA3
:1002D000641C4FF000084FF00009904271EB030CD2
:1002E00039D3002919BFB1FA81F701FA07F6B0FA3C
:1002F00080F700FA07F6C7F120071EBF20FA07FCB7
:1003000046EA0C062037B6FBF4FCA7EB0507103FC6
:1003100007F01F0BCBF120060CFA0BFB2CFA06F6AC
:1003200044BFB3460026202FA4BF5E464FF0000B0B
:100330005BEA060C08BF4FF0010B19EB0B09ABFB96
:10034000027C48EB0608C01B06FB02CC0BFB03CC6F
:1003500071EB0C01C1E70B46024641464846BDE839
:10036000F08B13B54FF000004FF00001AFF30080A9
:10037000BDE81C40704700000FB47CB50C0009AA12
:10038000009001D02044401E084B7B4469460190F8
:10039000089800F020FC05461CB10020694600F0DA
:1003A0002DFC28467CBC5DF814FB00007908000099
:1003B0002DE9F0410646002410687529314616A53E
:1003C00010D0AFF30080002802DA404213A507E006
:1003D00031688A0701D512A502E0490704D511A5A5
:1003E000012401E0AFF3008000210A2206F1240776
:1003F00009E0B0FBF2FCB0FBF2F302FB1C00303072
:1004000078541846491C0028F3D123462A46304622
:10041000BDE8F04100F071B9000000002D000000BF
:100420002B000000200000002DE9F0474FF0000AEB
:1004300089460446C0F820A02046E1688847002885
:1004400076D0252806D0D4E901219047206A401CA7
:100450002062F1E7E168204600258847C4F81CA027
:1004600006460027C4F818A02A2E09D0304603F00B
:100470003FF938B304EB8708303EC8F8186019E03C
:1004800059F8041B204604EB87029161E168884714
:10049000012F064618D1E069002820DA25F0200552
:1004A0001DE0D8F8180000EB800006EB4000303863
:1004B000C8F818002046E1688847064603F018F996
:1004C0000028EED1012F0AD02E2E08D12046E16857
:1004D00088477F1C0646022F45F02005C4DBA06933
:1004E000002803DA404245F00105A061E80701D089
:1004F00025F01005B6B1A6F14100192802D8203622
:1005000045F400654A463146204625604D46FFF7D2
:1005100075FE58B1012806D0ED1D25F0070000F149
:10052000080989E704E005F1040985E730468AE710
:10053000206ABDE8F08710B5431C02E010F8011BEB
:1005400071B18107FAD14FF0013202C88C1A8C4385
:1005500014EAC211F9D0C01A0A0603D0C01E10BD99
:10056000C01A10BD0A0401D0801E10BD0902FCD0C3
:10057000401E10BD032A40F2308010F0030C00F042
:10058000158011F8013BBCF1020F624498BF11F8CD
:1005900001CB00F8013B38BF11F8013BA2F1040286
:1005A00098BF00F801CB38BF00F8013B11F00303FE
:1005B00000F02580083AC0F0088051F8043B083A62
:1005C00051F804CBA0E80810F5E7121D5CBF51F804
:1005D000043B40F8043BAFF30080D20724BF11F87E
:1005E000013B11F801CB48BF11F8012B24BF00F8E3
:1005F000013B00F801CB48BF00F8012B704710B554
:10060000203AC0F00B80B1E81850203AA0E818500A
:10061000B1E81850A0E81850BFF4F5AF5FEA027CCB
:1006200024BFB1E81850A0E8185044BF18C918C03A
:10063000BDE810405FEA827C24BF51F8043B40F8DB
:10064000043B08BF7047D20728BF31F8023B48BFC0
:1006500011F8012B28BF20F8023B48BF00F8012BFE
:1006600070474FF000020429C0F0128010F0030C14
:1006700000F01B80CCF1040CBCF1020F18BF00F895
:10068000012BA8BF20F8022BA1EB0C0100F00DB844
:100690005FEAC17C24BF00F8012B00F8012B48BFA2
:1006A00000F8012B70474FF0000200B51346944646
:1006B0009646203922BFA0E80C50A0E80C50B1F1BA
:1006C0002001BFF4F7AF090728BFA0E80C5048BFCE
:1006D0000CC05DF804EB890028BF40F8042B08BF6C
:1006E000704748BF20F8022B11F0804F18BF00F868
:1006F000012B70477047704770472DE9F0470D4652
:1007000099469246044600F124080168880604D5FB
:10071000E06921F01001216000E00120A84201DD24
:10072000471B00E00027A1697A1902EB0900081AAB
:10073000A0612078C00602D42046AFF300800026D6
:1007400008E0D4E901211AF806009047206A401C0D
:10075000761C20624E45F4DB2078C0060AD5204680
:10076000AFF3008006E0D4E9012130209047206AF1
:10077000401C2062381EA7F10107F4DC07E0D4E931
:10078000012118F805009047206A401C2062281EAD
:10079000A5F10105F3DC2046AFF3008020780006C8
:1007A00002D50220BDE8F0870120FBE770472DE964
:1007B000FF4F0C461E464FF0FF378BB0D2E90001C9
:1007C000DDF860800A908A46C1F30A5505B93D46B6
:1007D000002108464FF00000BAF1000F00F440007D
:1007E00005DA00EB80004FF4400101EA50004FEAC7
:1007F0009059B9F1010F00DDB9460A9850EA4A0054
:100800000ED044F61050A5F2FF3545432F14B8F131
:10081000000F1ED07542291E1EDDC9F100021CE02A
:10082000B8F1010F4FF0000001D0302103E0F24396
:1008300005E02154401CB042FBDB30460022002181
:1008400021540B99C1F80880C1E900200FB0BDE820
:10085000F08FBD1B6D1CDEE74A4600DA694206A830
:1008600000F064FA06AB93E8070003AB83E80700E7
:1008700050460A9900F045FB8DE80700A0F50050AE
:100880001F3800900398002D0ADD42F21F014A46EE
:100890000844002303A90390684600F0AEFD09E078
:1008A000A0F500504A461F38002303A9039068466C
:1008B00000F0B8FD8DE807000004000C03D04FF0F5
:1008C000FF30410800E01046B8F1000F03D00022CD
:1008D000009215461EE0751E05D400F0A1F93032D5
:1008E00062556D1EF9D5B3460122084302D000229D
:1008F0007F1C04E02078302801D100227F1E002ACE
:10090000099784D01DE0112D07DA00F089F9303203
:1009100062556D1C50EA0102F5D1084302D00098DF
:10092000C8B10EE00021681E05E0235C625C6354E0
:100930002254401E491C8142F7DBAB46A81B401ED7
:100940000990002004F80B000B98099AC0F8088061
:10095000C0E9002B7AE711264FF0000857E72DE990
:10096000F04F88460446D21D22F0070191B0D1E92C
:100970000001CDE90A0102F093FE02460B98C00F78
:1009800001D02D2007E02068810701D52B2002E04F
:10099000202101EAC000032A099001D0072A05DBC3
:1009A00003464146204600F081F90BE1207880069D
:1009B00001D5E06900E00620B8F1650F814606D058
:1009C000B8F1660F18D0B8F1670F70D131E0002090
:1009D000B9F1110F009001DB112301E009F10103CE
:1009E0000AAA01A90CA8FFF7E2FEDDE90C700026B7
:1009F00009F10105834647E001204B4600904FF086
:100A000000470AAA01A90CA8FFF7D1FEDDE90DB045
:100A10000C995D46002610B909F101000D18B9EBDB
:100A2000050003D4C0F1FF3609F10105A5EB09006B
:100A30002BE0B9F1010F01DA4FF001090020B9F103
:100A4000110F0090484601DD112300E003460AAA79
:100A500001A90CA8FFF7ABFEDDE90C704D4600269E
:100A60008346207800070AD4AB4500DA5D4601A82A
:100A7000012D04DD411911F8011C302907D04F4523
:100A800002DA17F1040F04DA012082460FE06D1E2E
:100A9000EEE7002F02DCED1B3E4403E0781CA84289
:100AA00000DD7D1CB81B00F1010A4FF000472078E3
:100AB000000703D4AA4501DB4FF0FF3A0021B7F14C
:100AC000004F0DF143088DF8431024D002202B2352
:100AD000002F01DA7F422D230A21021EA0F101001E
:100AE00000DC5FB197FBF1FC97FBF1F201FB1C7C92
:100AF00017460CF1300C08F801CDEEE7A8F1010023
:100B000003702188090501D5452100E06521A0F188
:100B1000010800F8011C09980FA9A1EB0807FF1DA7
:100B200000B10120411901EBEA70A1693844081AAB
:100B3000401EA0612078C00602D42046AFF300809A
:100B4000099828B1D4E901219047206A401C20620D
:100B50002078C00622D52046AFF300801EE0002E8C
:100B600004DBB34502DD01A8805D00E03020D4E95C
:100B700001219047206A401C2062761CAAF10100E6
:100B80005FEA000A0AD100F047F8C0680168405CDB
:100B9000D4E901219047206A401C2062281EA5F15B
:100BA0000105DCDC07E0D4E9012118F8010B9047CE
:100BB000206A401C2062381EA7F10107F3DC2046A2
:100BC000AFF30080032011B041E6000001694A1C28
:100BD00002610878704700B58FB0CDE9013100217E
:100BE000059105497944CDE9031011466846FFF7A0
:100BF0001BFC0FB000BD0000E5FFFFFF0A6802F814
:100C0000010B0A607047D1E900239A4202D2531CBB
:100C10000B60107070470000004870477805002096
:100C200030B5B0F10A024FEA900E71F100034EEABE
:100C3000817EB0EB0E0061EB91014FEA101E4EEA8F
:100C4000017E10EB0E0041EB11114FEA102E4EEA1F
:100C5000016E10EB0E0041EB11214FEA104E4EEAEF
:100C6000014E10EB0E0041EB1141401841F1000123
:100C70004FEAD00040EA41704FEAD10110EB800505
:100C80004FEA810444EA907444EB01046D1944EB8B
:100C90000404521BA3414FF0000348BF0A3200D5A1
:100CA00030BD401C41F1000130BD00002DE9F04194
:100CB0001F46044603260168072A01F4006004DB8E
:100CC00008B116A505E016A503E008B115A500E0DA
:100CD00015A521F010002060A069C01EA0610FB111
:100CE000401EA0612046AFF300804FB1D4E901213E
:100CF00038469047206A401C2062C01C206206E0F3
:100D0000206AFAE7D4E9012115F8010B9047761E15
:100D1000F8D22046AFF30080BDE8F0814E414E008E
:100D20006E616E00494E4600696E66002DE9F0471F
:100D3000814616468AB0354878440DC88DE80D00C6
:100D400032487844801C03AC0DC884E80D0041F69D
:100D50009B300844372190FBF1F290FBF1F5A5F1AF
:100D6000800501FB12041B3C02D56442012000E017
:100D70000020DFF898A080460027FA44AAF1BE0AB6
:100D80000EE0E0070AD03246684607EB4701012330
:100D90000AEB810100F046FB8DE8070064107F1C20
:100DA000002CEED1194F7F44AE3F19E0E80715D073
:100DB00007EB04100DF1180A90E80E008AE80E0007
:100DC000C068F04201D1981908903246012306A963
:100DD00003A800F027FB03AB83E807006D10641C39
:100DE000002DE3D14FF0010332466946B8F1000F00
:100DF00003A802D000F001FB01E000F013FBC9E9F9
:100E00000001C9F808200AB0BDE8F0879C2E000058
:100E100000487047580500207546FFF7F9FFAE46B9
:100E200005006946534620F00700854618B020B5F6
:100E3000FFF718FABDE820404FF000064FF000071A
:100E40004FF000084FF0000B21F00701AC46ACE872
:100E5000C009ACE8C009ACE8C009ACE8C0098D46DF
:100E6000704710B50446AFF300802046BDE810403F
:100E7000FFF7E3B94FF0013C50F8042B51F8043B65
:100E80009A4221D1A2EB0C03934313EACC1317D15E
:100E900050F8042B51F8043B9A4215D1A2EB0C03F5
:100EA000934313EACC130BD150F8042B51F8043BB5
:100EB0009A4209D1A2EB0C03934313EACC13DBD083
:100EC0004FF00000704700BFD01A01BAB1FA81F1AB
:100ED00001F0180122FA01F0CB40C1F12001DBB290
:100EE000C0B2C01A2CFA01F3D11A914311EAC3110E
:100EF000E6D1704701491820ABBEFEE7260002008C
:100F000070475FEA400C08BF91F0000F4FEA8C2356
:100F10004FEAC12243EA51514FEA1C5018BF00F575
:100F2000F0404FEA300018BF41F000415FEA6C5CCE
:100F300000F02980BCF1FF3F08BF40F080407047BF
:100F4000130C06BF12044FF0100C4FF0000C130EE0
:100F500004BF12020CF1080C130F04BF12010CF1B4
:100F6000040C930F04BF92000CF1020CD30F04BFCA
:100F700052000CF1010C11464FF00002A0F11F00CD
:100F8000A0EB0C00704711F0004F08BF704731F024
:100F900000413FF4D5AF0B0C06BF09044FF0100C15
:100FA0004FF0000C0B0E04BF09020CF1080C0B0FE4
:100FB00004BF09010CF1040C8B0F04BF89000CF174
:100FC000020CCB0F04BF49000CF1010CCCF1200343
:100FD000A0EB0C0022FA03F302FA0CF241EA03013F
:100FE00000F10100704720F07F4C80EA030023F0FD
:100FF0007F47ACEB070303F57C5300F0004003F19F
:10100000FF032DE980494FEA154B09B44FEA144319
:1010100025EA0B4E24EA03480FF2042606EB1327B9
:1010200049083E785FEA320203FB0667C7F500070E
:1010300007FB06F64FEA54374FEAD64606F102069A
:1010400007FB066CCCF1005C4FEA1C472CEA074C0E
:1010500007FB06F40CFB06F504EB15464FEA961663
:1010600034BF00204FF000404FEAD13706FB07FCA9
:101070004FEA1C4C0CFB0BF7D21B03FB0CF761EB8C
:1010800007010CFB0EF7B0EB074072EB17420CFBAD
:1010900008F734BFA2EB0742B2EB074261EB1741FE
:1010A0004FEA0C444FEA910706FB07FC4FEA1C4C41
:1010B0000CFB0BF7B0EBC74072EB573203FB0CF79E
:1010C00034BFA2EBC742B2EBC74261EB57310CFB16
:1010D0000EF7B0EBC70072EB57720CFB08F734BF8A
:1010E000A2EBC702B2EBC70261EB5771039F4FEA55
:1010F000816141EA921104EBCC044FEAD1374FEA07
:10110000826206FB07FC42EA90124FEA80604FEAD7
:101110001C4C0CFB0BF7D21B03FB0CF761EB07011C
:101120000CFB0EF7B0EB074072EB17420CFB08F715
:1011300034BFA2EB0742B2EB074261EB17414FEA23
:101140008C554FEA910704EB9C2406FB07FC4FEA01
:101150001C4C0CFB0BF7B0EBC74072EB573203FB98
:101160000CF734BFA2EBC742B2EBC74261EB573179
:101170000CFB0EF7B0EBC70072EB57720CFB08F7D5
:1011800034BFA2EBC702B2EBC70261EB577115EB9C
:101190004C254FEA816141EA92114FEA82624FEA9F
:1011A000D13742EA901206FB07FC44F100044FEAF3
:1011B00080604FEA1C4C0CFB0BF7D21B03FB0CF7B7
:1011C00061EB07010CFB0EF7B0EB074072EB174227
:1011D0000CFB08F734BFA2EB0742B2EB074261EB0E
:1011E000174115EB1C154FEA813141EA92414FEA54
:1011F000823242EA90424FEA80304FEA0C7644F164
:10120000000448EA03434EEA0B484FF0000EB2EBED
:10121000080C71EB030724BF624639464EEB0E0EF5
:101220004FF0000B0018524149414BEB0B0BB2EB56
:10123000080C71EB03077BF1000B24BF62463946B3
:101240004EEB0E0E4FF0000B0018524149414BEB94
:101250000B0BB2EB080C71EB03077BF1000B24BF07
:10126000624639464EEB0E0E51EA020718BF46F0B1
:10127000010616EB0E7655F1000254F1000103D57C
:10128000BDE88901BDE80088BDE88901BDE80048E6
:10129000B619524141EB0101A3F10103704780806F
:1012A0007F7E7D7C7B7A79787776767574737271C0
:1012B00071706F6E6E6D6C6C6B6A6A696868676678
:1012C00066656464636362616160605F5F5E5E5D0A
:1012D0005D5C5C5B5B5A5A5959585857575656557E
:1012E00055555454535352525251515050504F4FE0
:1012F0004F4E4E4D4D4D4C4C4C4B4B4B4A4A4A4930
:101300004949484848474747474646464545454472
:101310004444444343434342424242414141002BFF
:101320009C4630D477002BD01CB54FEA370703B466
:101330004FF010004FF01001BAF1000F06D0BCF1D1
:10134000000FDCBF40F0080040F008014FF0000043
:101350000FBCBDE810400BF1010BBBF1010F08BF42
:101360005FEA170722BF12F1010211F101014FF0EC
:10137000004143F1000300F0004043EA00007047E1
:10138000F9D35708D0E746EA064613F1400F4FEA73
:1013900016461FDD13F1200FDFBF16430A4600215A
:1013A00020335B42BED0C3F1200746EA064602FA6C
:1013B00007F74FEA164646EA0706C3F1200722FA66
:1013C00003F201FA07F721FA03F14FF0000342EAB2
:1013D0000702A7E746EA020646EA06464FEA16462D
:1013E00046EA0106BCBF46EA0646360C4FF000034B
:1013F0004FF000024FF0000194E72DE9804C9A462F
:10140000934670B491E8380007C831EA400C48BFF1
:1014100034EA430C03D5FFF7E6FDFFF780FFF0BC8D
:10142000BDE8008C2DE9804C9A46934670B491E853
:10143000380007C810F0804F08BF13F0804F03D169
:1014400000F005F8FFF76BFFF0BCBDE8008C20F062
:101450007F4780EA030023F07F4C07EB0C03A3F5E2
:101460007C5300F00040A3F1FE0392F0000F00F067
:10147000B38095F0000F00F077802DE901494FEA25
:1014800011404FEA144621EA004800FB06FC24EA1A
:10149000064708FB06F607FB08F800FB07F718EB02
:1014A00006484CEB164C4FEA124B18EB07484FEA34
:1014B00015464CEB174022EA0B4E0BFB06FC25EAC7
:1014C00006470EFB06F607FB0EFE0BFB07F71EEBAF
:1014D000064E4CEB164C4FF000061EEB074E4CEB45
:1014E000174B18EB0B0840F1000018EB0E0B58EBF4
:1014F000000840F100008F1A4FF000013CBFC943C3
:10150000661B14BFB5EB040C00213CBFC943F61B9E
:101510004FEA17444EEA8E0E27EA04454FEA1C476D
:1015200004FB07622CEA074C05FB07F70CFB05F6EA
:1015300004FB0CFC16EB074642EB174216EB0C467D
:1015400042EB1C421BEB060658EB0202414146EA05
:101550009E0601D5BDE80189B619524141EB010152
:10156000A3F10103BDE801894FEA14454FEA114791
:1015700024EA054621EA074C05FB07F406FB07F7BA
:101580000CFB06F105FB0CFC11EB074144EB174487
:101590004FEA124711EB0C4144EB1C4422EA074C82
:1015A00005FB07F206FB07F70CFB06F605FB0CFC38
:1015B00016EB074642EB174216EB0C4642EB1C4576
:1015C0006A1854F1000148BF7047B619524141EB07
:1015D0000101A3F10103704795F0000F37D04FEAE6
:1015E00011424FEA144721EA024624EA074C02FB63
:1015F00007F106FB07F70CFB06F402FB0CFC14EBEF
:10160000074441EB17414FEA154714EB0C4441EBFB
:101610001C4125EA074C02FB07F506FB07F70CFB0C
:1016200006F602FB0CFC16EB074645EB174516EBDE
:101630000C4645EB1C42121951F1000148BF70479E
:10164000B619524141EB0101A3F1010370474FEA82
:1016500014454FEA114724EA054621EA074C05FBE9
:1016600007F106FB07F70CFB06F24FF0000605FB3F
:101670000CFC12EB074241EB174112EB0C4251EB11
:101680001C4148BF7047921841EB0101A3F10103CF
:10169000704710B500F0ACF801F075FC01F0D6FD14
:1016A000BDE8104000F035B870B500F005FA154CF3
:1016B00005466068281A0A280AD31348656001F0B5
:1016C00060FC28B9104800F0A9F8207000F022F85A
:1016D000A068281A142807D30B48A560217890EC3D
:1016E000060A0A4800F01AF8E068281A642807D3A6
:1016F000E560207800F0AAF8BDE8704001F0A8BDD0
:1017000070BD00000000002020010020D800002053
:10171000FEE770477047704772B6FEE72DE9F34F5A
:101720002DED060B12EE900A2DED068BB5B0B0EE46
:10173000428AF0EE618AB0EE419AF0EE609AB0EE25
:1017400040AA02F04DF906460F4618EE100A02F0C4
:1017500047F904460D4618EE900A02F041F9CDE92A
:10176000000119EE100A02F03BF982468B4619EE91
:10177000900A02F035F9804689461AEE100A02F006
:101780002FF9024642980B46CDE90B7008A880E875
:101790007000DDE900018DE80C0FCDE906010BA218
:1017A000A0210DA8FEF7E8FD002808DD0DA8FEF732
:1017B000C2FE82B232230DA9419801F025F935B05D
:1017C000BDEC068B08B0BDE8F08F0000252E336617
:1017D0002C252E33662C252E33662C252E33662C95
:1017E000252E33662C252E33662C25640A00000036
:1017F00008489FED070A084980ED000A80ED010ABC
:1018000080ED020A00200870487088707047000060
:10181000000000003C0100201000002010B501F085
:101820006FFF09490A7890420AD18A78FF2A01D2CB
:10183000521C8A70D2B2032A00D34870487810BD77
:10184000087001208870F9E710000020012807D0F7
:10185000022807D0032807D0042807D004A0704727
:1018600005A0704706A0704707A0704708A0704702
:10187000554E4B4E4F574E00535441544943000070
:101880005357494E47000000524F545F43570000E2
:10189000524F545F4343570070B5044600F00CF9B3
:1018A0000546601C02D004480078044400F004F9A6
:1018B000401BA042FAD370BD200000202DE9F84F54
:1018C000DFF8BCA10022012503264FF00F090AF121
:1018D000040BAAF1040E00BF0B6805FA02F42340C2
:1018E000A34270D10F7907F00307012F01D0022F17
:1018F00016D187684FEA420806FA08FC27EA0C0767
:10190000D1F80CC00CFA08FC4CEA070CC0F808C06F
:101910004768A7430C79C4F3001494403C434460E7
:101920000C79E443A4070AD0C4684FEA420C06FAD3
:101930000CF7BC438F6807FA0CF72743C7600C7994
:1019400004F00304022C12D1D40800EB840CDCF860
:1019500020405707FF0E09FA07F824EA0804D1F8D7
:10196000108008FA07F848EA0408CCF820800468D8
:101970004FEA420C06FA0CF7BC430F7907F0030755
:1019800007FA0CF7274307604C6814F4403F70D007
:101990003C4C276847F480472760246822F00307FF
:1019A00004F480440094384C07EB040CDCF808483D
:1019B00097074FEA177809FA08F7BC43334FB84244
:1019C00002D1002724E054E0314FB84201D1012771
:1019D0001EE0304FB84201D1022719E02E4FB84225
:1019E00001D1032714E02D4FB84201D104270FE0A5
:1019F0002B4FB84201D105270AE02A4FB84201D146
:101A0000062705E0284FB84201D1072700E0082744
:101A100007FA08F72743CCF80878DAF80040574669
:101A2000D1F804C09C435FEACC2C00D51C433C6039
:101A3000DBF800405F46D1F804C09C435FEA8C2C81
:101A400000D51C433C60DEF800407746D1F804C066
:101A50009C435FEA8C3C00D51C433C60084F083F28
:101A60003C68D1F804C09C435FEACC3C00D51C43E1
:101A70003C60521C102AFFF42FAFBDE8F88F000025
:101A8000083C014044380240003001400000024060
:101A90000004024000080240000C02400010024016
:101AA0000014024000180240001C02400AB181618B
:101AB00070470904FBE70000014880687047000098
:101AC0002000002070B5040025D094F83D000025CA
:101AD00020B984F83C50204600F09EFB242084F876
:101AE0003D002068016821F0010101602068016863
:101AF00041F4004101602068016821F40041016067
:101B000000F000FD4D4A6168914201D84C4900E067
:101B10004C49884201D2012070BD4B492368B0FB7B
:101B2000F1F15E6826F03F060E435E606368934203
:101B300006D94FF4967359434FF47A73B1FBF3F11E
:101B40002368491C1E6A26F03F063143196261680A
:101B5000914210D84900401EB0FBF1F2521CC2F372
:101B60000B02042A01D2042022E0B0FBF1F0401C59
:101B7000C0F30B001CE0A268F2B301EBC10303EB5E
:101B80000116431EB3FBF6F35B1C43F480431B05B5
:101B900049D092B301EBC10202EB0111401EB0FB30
:101BA000F1F0401CC0F30B0040F4804040F40040D2
:101BB0002168CA694CF6FF739A431043C861D4E99F
:101BC000071001432068026822F0C002114301603F
:101BD000D4E9030101432068826848F2FF339A4345
:101BE00011438160D4E9050108432168CA6822F0E5
:101BF000FF021043C86001E00EE016E020680168B3
:101C000041F0010101602564202084F83D00256336
:101C100084F83E50002070BD01EB4106431EB3FB2B
:101C2000F6F35B1CB3E70120C2E701EB4101401E64
:101C3000B0FBF1F0401CC0F30B00B7E7A086010039
:101C400080841E0000093D0040420F002DE9FF4F37
:101C500081B089460446FFF72FFF054694F83D0002
:101C60004FF0000820287DD1192301225049204639
:101C7000009501F07DF8002874D194F83C0001280B
:101C800070D0012084F83C0020680168C90703D1A6
:101C9000016841F0010101602068016821F40061E0
:101CA0000160242084F83D00002626644148E0625B
:101CB0004FF0011B20272068016841F4807101600A
:101CC0000095002259462046049B01F051F850B17E
:101CD00020680068C00502D54FF40070206403201E
:101CE00005B0BDE8F08F216809F0FE000861FFF73C
:101CF000E3FE2168054648694969C0F34000C1F325
:101D000080214FF0A00A0FE0FFF7D6FE411B049898
:101D1000814200D808B984F83DA021684869496922
:101D2000C0F34000C1F3802194F83D20A02A02D0E6
:101D300008B90029E8D084F83D7020684169C9439A
:101D4000890716D4016841F4007101602068416977
:101D500080691923012216492046009501F008F8F0
:101D6000B8B900E021E084F83D7084F83C600020C0
:101D7000B6E7016841F40071016021686FF480608A
:101D80004861192301220A492046009500F0F0FF1E
:101D900008B10120A4E7039808F1010880458AD31F
:101DA00084F83D7084F83C60F3E7022098E7000077
:101DB000020010000000FFFF2DE9F84F1F4690467B
:101DC0008A460446DDF82890FFF776FE054694F82B
:101DD0003D0020287FD1192301224049204600954B
:101DE00000F0C6FF002876D194F83C00012872D09C
:101DF000012084F83C0020680168C90703D101680C
:101E000041F0010101602068016821F40061016076
:101E1000212084F83D00102084F83E00002626642E
:101E2000C4F824806785608D20852D48E0622B46AC
:101E30004A465146204600F04FFE90B9206841695D
:101E40008069009036E02A464946204601F06EF847
:101E500050B1206C042804D12068016841F400715D
:101E600001600120BDE8F88F606A21680078086190
:101E7000606A401C6062618D491E6185218D491E2A
:101E800089B2218522685369DB435B070BD451B1CA
:101E900000781061606A401C6062608D401E608541
:101EA000208D401E20852A464946204600F034FFFA
:101EB0000028CED1208D0028C5D154F83D0B0168F3
:101EC00041F400710160202004F81E09E67766776E
:101ED0000020C7E7FFE70220C4E70000020010006F
:101EE0000000FFFF2DE9FF4F83B09A46DDE911871F
:101EF00093460446DDF84090FFF7DEFD054694F872
:101F00003D00202870D119230122744920460095F4
:101F100000F02EFF0028F5D194F83C00012863D092
:101F2000012084F83C0020680168C90703D10168DA
:101F300041F0010101602068016821F40061016045
:101F4000222084F83D00402084F83E0000262664CC
:101F5000C4F82490A4F82A80608D20856048E0624F
:101F6000CDE9007553465A462046049900F002FE1A
:101F7000002879D1208DD0B1012821D002282068F5
:101F800024D0416980690090208D032866D80128FB
:101F90002BD0544902283B464FF00002009557D001
:101FA0008846204600F0E4FE00285DD13AE0206833
:101FB000416981690091016841F4007101607DE02F
:101FC0002068016821F480610160F0E7016821F474
:101FD000806101602068016841F40061016020684F
:101FE00041698069009069E075E02A4639462046DB
:101FF00000F064FF88BB54E02068016841F4007180
:10200000016020680069616A0870606A401C606253
:10201000218D491E2185618D491E618521680969CF
:10202000017042E02068016821F48061016020684D
:102030000069616A0870606A401C6062208D401E01
:102040002085608D401E60853B46002241460095FC
:10205000204600F08DFE00B9CEE705E02A4639465D
:10206000204600F02BFF18B1012007B0BDE8F08F2B
:1020700020680069616A0870606A401C6062208D97
:10208000401E81B22185608D401E608520684269B6
:10209000D243520712D4032903D1016821F480618D
:1020A000016020680069616A0870606A401C6062B3
:1020B000208D401E2085608D401E6085208D00286B
:1020C0007FF462AF202084F83D0084F83E6084F8FD
:1020D0003C600020C9E70220C7E7000002001000B2
:1020E0000000FFFF040001002DE9FF4F83B09A4676
:1020F000DDE9119793460446DDF84080FFF7DCFCEC
:10210000054694F83D0020287FD11923012240493B
:102110002046009500F02CFE002876D194F83C0073
:10212000012872D0012084F83C0020680168C907AA
:1021300003D1016841F0010101602068016821F4C8
:1021400000610160212084F83D00402084F83E00B9
:1021500000262664C4F82480A4F82A90608D208587
:102160002C48E062CDE9007553465A462046049952
:1021700000F07EFD70B930E02A463946204600F076
:10218000D5FE58B1206C042804D12068016841F4C0
:1021900000710160012007B0BDE8F08F606A21681E
:1021A00000780861606A401C6062218D491E89B216
:1021B0002185628D521E628522685369DB435B076D
:1021C0000BD469B100781061606A401C6062208D98
:1021D000401E2085608D401E6085208D0028CBD15B
:1021E0002A463946204600F097FD0028CAD154F807
:1021F0003D0B016841F400710160202004F81E09C4
:10220000E67766770020C6E7FFE70220C3E7000015
:10221000020010000000FFFFF0B587B00446142153
:102220006846FEF740FA2768204CDFF87CC01F495B
:1022300012220123032504261D481034674515D1B9
:102240000F6847F002070F60096801F0020105916D
:10225000C0218DE86E006946FFF730FB206840F42E
:1022600000102060206800F4001019E0DFF844C07E
:10227000674516D10F6847F002070F60096801F043
:10228000020105914FF440618DE86E006946FFF749
:1022900015FB206840F480002060206800F4800076
:1022A000059007B0F0BD00000054004030380240F7
:1022B000000402400058004002488168027811443E
:1022C00081607047200000200B4810B5016841F480
:1022D00000710160016841F480610160016841F4AE
:1022E00080710160032000F061F80F2000F006F813
:1022F00000F024F8002010BD003C024070B50D4DE8
:1023000004464FF47A712878B1FBF0F00A49096865
:10231000B1FBF0F000F0FCFA48B9102C07D2002213
:102320002146501E00F022F800206C6070BD012094
:1023300070BD0000200000202C0000200A4808B5D5
:10234000016841F480410160006800F48040009021
:102350000548001F016841F080510160006800F0ED
:102360008050009008BD000044380240F0B40E4B8D
:102370001B680C46C3F30223C3F10705042D00D9E3
:102380000425191D072901D2002300E0DB1E0126C8
:1023900006FA05F1491E214099409E40761E1640DE
:1023A0003143F0BC01F094B90CED00E0064900F0B7
:1023B000070208684FF6FF03184040EA0220034A6C
:1023C00010430860704700000CED00E00000FA05C3
:1023D0002DE9F0470E46050065D0DFF81481D8F8E6
:1023E0000000F7B200F00700B04207D288F8007092
:1023F000D8F8000000F00700B04254D128683D4CE6
:10240000810712D5400703D5206840F4E0502060D2
:102410002878000703D5206840F4604020602068D9
:10242000A96820F0F000084320602878C0072DD06C
:10243000304968680839012812D0022813D00328CF
:1024400011D00968890700292DDA216821F00301DC
:1024500001432160FFF730FB814641F2883A0EE0EC
:1024600009688903EFE709688901ECE7FFF724FBB6
:10247000A0EB0901514502D90320BDE8F08720688F
:10248000696800F00C00B0EB810FEFD1D8F80010B4
:10249000404601F00701B14207D90770006800F01B
:1024A0000700B04201D00120E7E72878400705D5B2
:1024B0002068E96820F4E05008432060287800078D
:1024C00006D52068296920F4604040EAC1002060F8
:1024D00000F038F82168084AC1F30311515CC84084
:1024E0000649086006480068FFF708FF0020C4E7B7
:1024F000003C024008380240423B00082C0000200B
:10250000240000200448054900680968044AC1F312
:102510008221515CC84070472C00002008380240DE
:10252000523B00080448054900680968044AC1F3A1
:102530004231515CC84070472C00002008380240EE
:10254000523B0008154810B5006810F00C02144802
:1025500013D04110042A0FD0082A0ED10F4C241F8B
:102560002268236802F03F025B0207D52068C0F3AF
:102570008810A0FB010106E0084610BD2168C1F3E8
:102580008811A1FB00010023FDF77EFE2168C1F345
:102590000141491C4900B0FBF1F010BD0838024070
:1025A0000024F4002DE9F84F04006ED02078DFF805
:1025B0004C93C007A9F104054AD009F10400016851
:1025C000C1F38101012908D00068C0F3810002280D
:1025D0000AD1D9F80000400206D52868800337D513
:1025E00060680028E1D033E06068B0F5803F10D02B
:1025F000B0F5A02F286810D020F48030286028681B
:1026000020F4802028606068A8B1FFF755FA0646DC
:102610000DE0286840F48030F4E740F48020286022
:10262000F7E700BFFFF748FA801B642873D82868D3
:102630008003F7D50CE0FFF73FFA064605E000BF40
:10264000FFF73AFA801B6428F0D828688003F7D493
:102650002078DFF8AC8280074FF0000A3ED5A7480B
:10266000001D016811F00C0F08D00068C0F3810054
:1026700002280BD1D9F80000400207D4286880074F
:1026800016D5E068012800D112E033E1E068B8B166
:102690000120C8F80000FFF70FFA064605E000BF6A
:1026A000FFF70AFA801B0228C0D828688007F7D5F0
:1026B0002868216920F0F80040EAC10028600DE098
:1026C000C8F800A0FFF7F8F9064604E0FFF7F4F9B0
:1026D000801B02281FD828688007F7D420780007BD
:1026E00022D5864F87486169703771B10121016039
:1026F000FFF7E2F9064604E0FFF7DEF9801B022847
:1027000009D838688007F7D50EE0C0F800A0FFF7B9
:10271000D3F9064605E082E0FFF7CEF9801B0228D8
:102720007DD838688007F7D42078400768D5DFF86F
:10273000CCB100270BF13C0BDBF80000C0000BD440
:10274000DBF8001041F08051CBF80010DBF80000FE
:10275000012700F0805000906B4E3068C00510D407
:10276000306840F480703060FFF7A6F9009005E013
:10277000FFF7A2F90099401A022850D83068C00526
:10278000F6D55E4EA0686C3601280FD0052830685B
:1027900010D020F001003060306820F0040030607C
:1027A000A068B8B1FFF788F900900FE0306840F0FA
:1027B0000100F4E740F004003060F7E7FFF77CF930
:1027C0000099411A41F28830814266D8306880070A
:1027D000F4D50EE0FFF770F9009007E0FFF76CF911
:1027E0000099411A41F28830814256D830688007FA
:1027F000F4D42FB1DBF8001021F08051CBF8001099
:10280000A069C8B33D49091D0968C1F381010229C6
:102810004AD00228504607D0C8F8600000E03CE0EB
:10282000FFF74AF904463BE04746C8F86000FFF767
:1028300043F9064605E000BFFFF73EF9801B02287A
:102840002BD828688001F7D4D4E907010843A16A8E
:102850002E4A490802EB0141626A41EA82110843AB
:1028600094F82C1040EA0161C9F800100120386684
:10287000FFF722F9044606E03EE000BFFFF71CF92F
:10288000001B022809D828688001F7D534E000BF72
:10289000FFF712F9001B022802D90320BDE8F88FC8
:1028A00028688001F4D427E00128F7D0D9F8000087
:1028B000E26900F4800191421CD1226A00F03F01DC
:1028C000914217D147F6C071626A0140B1EB821F95
:1028D00010D1A26A4FF0FF3300F4403103EB5202F3
:1028E000B1EB024F06D194F82C1000F07060B0EB01
:1028F000016F01D00120D1E70020CFE7043802406A
:1029000000004742800E4742007000400000FFFF79
:1029100010B5401EB0F1807F01D3012010BD4FF0F3
:10292000E02460610F21601700F0D2FE0020A0615A
:1029300007202061002010BD70B5040004D094F879
:102940004100002510B106E0012070BD84F8405020
:10295000204600F023F8242084F841002068C16854
:1029600021F40051C160204600F0DAFD20680169C1
:1029700021F4904101612068416921F02A014161FF
:102980002068C16841F40051C1606564202084F86A
:10299000410084F842006563002070BD10B586B028
:1029A000044614216846FDF77EFE144920688842DB
:1029B00021D113480021026842F010020260006831
:1029C00000F0100005900E481438026842F0010231
:1029D0000260006800F0010005904FF4C0600090B4
:1029E0000220CDE9010103200390072004906946ED
:1029F0000448FEF763FF06B010BD00000010014060
:102A000044380240000002402DE9F843044690F8A3
:102A10004100984616460D46202802D00220BDE807
:102A2000F88385B17EB100206064212084F84100E4
:102A3000FFF742F8A6848146E684A0682027B0F517
:102A4000805F02D003E00120E9E7206910B12E4643
:102A500000250EE000260CE08021204600F0E6FD77
:102A6000A8B9C6B116F8010B21684860E08C401E79
:102A7000E084E08C4B464FF00002CDF80080002847
:102A8000EAD14FF04001204600F0D0FD40B184F87B
:102A900041700320C3E735F8020BC0F30800E3E7F9
:102AA00084F841700020BAE7FEE701684A69D24322
:102AB00052050FD46FF480624A61002140F8301F44
:102AC000202242738173026942F0040202610173A1
:102AD0000120704700207047F8B50446C06A1E46C2
:102AE0000D461746082807D0012805D010F5803F6D
:102AF00002D0206B122804D12068016841F4807153
:102B00000160134600224FF001112046009600F0AC
:102B10002FF940B120680068C00502D54FF400705D
:102B200020640320F8BD2069B0F5804F0ED0062048
:102B3000216800EAD51040F0F000086133463A46BB
:102B40000B49204600F05CF978B902E005F0FE0080
:102B500000E0E8B221680861054933463A46891F1A
:102B6000204600F04DF90028DCD00120F8BD00001F
:102B7000080001002DE9F84F0446006889460B9DC6
:102B800001689846174641F4806101602068016839
:102B900041F48071016000954FF0011B00225946FD
:102BA00020460A9B00F0E4F84FF4007A40B1206818
:102BB0000068C00501D5C4F840A00320BDE8F88F27
:102BC000216809F0FE0008612B46284920460A9A30
:102BD00000F016F9F0BB20684169806900902A4630
:102BE00020460A9900F0A2F940B1206C04283AD19D
:102BF0002068016841F40071016034E0FEB2B8F170
:102C0000010F09D02168380A08612A4620460A992E
:102C100000F08CF90028E8D1206806612A46204699
:102C20000A9900F083F90028DFD12068016841F497
:102C30008071016000950022594620460A9B00F0F1
:102C400097F80028B3D1216809F0FF0040F0010097
:102C5000086100E007E02B46044920460A9A00F08C
:102C6000CFF80028AAD00120A8E700000200010048
:102C70002DE9F843044600680D46DDE90897016830
:102C80009846164641F4807101604B4600224FF091
:102C900001112046009700F06BF848B120680068E9
:102CA000C00502D54FF4007020640320BDE8F8830E
:102CB000216805F0FE0008613B464A46154920465A
:102CC00000F09EF888B920684169806900903A4612
:102CD0004946204600F02AF948B1206C042804D166
:102CE0002068016841F4007101600120DEE7F5B25F
:102CF000B8F1010F09D02168300A08613A46494607
:102D0000204600F013F90028E7D120680561002073
:102D1000CCE700000200010070B516460D460446DF
:102D20001EE02046FFF7C1FE08B1012070BD681CFF
:102D300016D0FEF7C1FE801BA84200D885B92068D6
:102D40004069C04340070BD5002044F8300F2021D4
:102D50006173A073216941F0200121612073E4E7D0
:102D600020684069C0434007DBD4002070BD0000EC
:102D70002DE9F047984617460D460446C1F307462D
:102D8000DDF820902AE000BFB8F1FF3F26D0FEF723
:102D900093FEA0EB0901414502D8B8F1000F1DD107
:102DA0002068012E16D0806925EA00000004000C7E
:102DB00012D00020B84211D1002044F8300F202159
:102DC0006173A073216941F020012161207301200A
:102DD000BDE8F0874069E7E70120EBE72068012EB6
:102DE0000AD0806925EA00000004000C06D000200B
:102DF000B842C9D00020EBE74069F3E70120F7E7CC
:102E00002DE9F047984616460D4604464FF0000956
:102E10004FF0200AC1F3074723E020684069C04310
:102E2000400515D42068016841F4007101602168F3
:102E30006FF480604861C4F8309084F83DA084F855
:102E40003E90216C41F00401216484F83C9021E023
:102E5000701C06D0FEF730FEA0EB0800B04203D88D
:102E600016B1012F1FD021E02068012F15D08069F5
:102E700025EA00000004000C18D000BF44F8309F81
:102E800084F80DA084F80E90216941F020012161A1
:102E900084F80C900120BDE8F087406925EA000025
:102EA0000004000CEAD12068406901E020688069D4
:102EB00025EA00000004000CAFD1ECE72DE9F04159
:102EC000002590460E460446202728E04069C0436E
:102ED000C0060CD454F8301B6FF01000486144F861
:102EE00010596777A577206A2062257714E0FEF7EE
:102EF000E3FDA0EB0800B04200D886B92068406925
:102F0000C04340060BD544F8305F6773A573206952
:102F100040F02000206125730120BDE8F081206889
:102F20004169C9434906D1D40020F6E770B5164679
:102F30000D4604461EE02046FFF7B7FD08B101200C
:102F400070BD681C16D0FEF7B7FD801BA84200D8E4
:102F500085B920684069C04300060BD5002044F8BD
:102F6000300F20216173A073216941F0200121619C
:102F70002073E4E720684069C0430006DBD40020EA
:102F800070BD00F02DB8AFF3008038B500208DF88B
:102F9000000001226946752000F0A8FC4FF0FF34C4
:102FA000E0B900216B2000F0B3FCB8B90A20FEF7AD
:102FB00073FC0721192000F0ABFC78B903211A201B
:102FC00000F0A6FC50B900211B2000F0A1FC28B99C
:102FD00000211C2000F09CFC002800D0204638BDB9
:102FE0002DE9FF4104004FF0FF3505D00E22694660
:102FF0003B2000F07BFC18B1284604B0BDE8F0810E
:103000009DF800009DF80750000203B29DF80100F2
:103010009DF80B6003439DF8020000EE103A000299
:1030200002B29DF80300F8EEC00A02439DF80400C6
:103030009FED320A000201B29DF8050020EE801AD1
:1030400001439DF80600DFED2E0A000200B228437E
:103050009DF8085021EE201A2D022FB29DF809503C
:103060009DF80DC02F439DF80A502D022DB2354317
:103070009DF80C6084ED001A01EE102A360236B27B
:10308000B8EEC11A46EA0C0621EE001A21EE201A0B
:1030900084ED011A01EE101AB8EEC11A21EE000AF1
:1030A00020EE200A84ED020A00EE107AF8EEC00A43
:1030B0009FED140A80EE801A00EE905AF8EEE00AB6
:1030C00084ED031A80EE801A00EE906AF8EEE00AB2
:1030D00084ED041A80EE801A00EE100A0020F8EE4B
:1030E000C00A84ED051A9FED081A80EE810ADFED13
:1030F000070A30EE200A84ED060A7EE700008038D9
:103100000AE81C41000003430000AA43B81E124213
:1031100070B586B014216846FDF7C5FA1A48002438
:10312000016841F080010160016801F080010591B2
:10313000016841F001010160016801F001010591A0
:10314000016841F002010160016801F0020105918E
:10315000016841F00801016000680C4E00F00800B1
:103160004FF480550590002229463046FEF79EFC1C
:1031700001200095CDE90104694630460394FEF72D
:103180009DFB06B070BD000030380240000C0240CC
:103190000D4810B50B4901600C49416000214FF406
:1031A00080428160C0E9031241618161C1610162B5
:1031B000FEF788FC002803D0BDE81040FEF7ACBA4B
:1031C00010BD00000054004030000020A086010027
:1031D0000D4810B50B4901600C49416000214FF4C6
:1031E00080428160C0E9031241618161C161016275
:1031F000FEF768FC002803D0BDE81040FEF78CBA4B
:1032000010BD00000058004084000020A08601008E
:103210000C4810B50A4901604FF4E13141600021CA
:1032200081600C22C160C0E904128161C161FFF7B5
:1032300083FB002803D0BDE81040FEF76DBA10BD37
:1032400000100140D8000020FEE7FEE700F05AB869
:1032500010B5044600F016F8002106A2084600F05A
:1032600019F822461021002000F014F8BDE81040A3
:1032700000F09CB8476573747572653A00000000F1
:10328000704700004FF480610148FDF7EAB9000083
:10329000580100202DE9F74F5FEA020A81462FD03E
:1032A0002AE000BFB9F17A0F2ADC019E00F090FA03
:1032B0008346002500241BF8058009EB050700BFA5
:1032C00028FA04F000F001023119384600F036FB0C
:1032D000641C082CF4DB6D1C052DEBDB002431197C
:1032E000002209F1050000F029FB641C082CF6DB24
:1032F00009F106090AF1010A9AF800000028D1D163
:10330000BDE8FE8F2DE9F04188B01C221DA1684662
:10331000FDF775F96420FEF7BFFA21480025214C1E
:1033200000684FF0FF3807AF2E46079037F81510AA
:10333000322302221C48FEF789FC48B16D1C022D85
:10334000F4D3268066604046A66008B0BDE8F081F0
:1033500037F815002080022000256F466060785DF8
:1033600000F008FB10B14046A660EEE76D1C192D79
:10337000F5D30320A060FFF785FF00F017F80020C9
:10338000E3E70000AED580A83FD30040A1C8DA1221
:10339000817FA4A6D9F1DB408D14AD8BAF00000076
:1033A000D03A0008140000208400002070B5194EA7
:1033B000A2B0002404F1B000E501C0B200F0DAFAD6
:1033C000002824D1022000F0D5FA00281FD11020B7
:1033D00000F0D0FA00281AD10F4880224119358810
:1033E000002D14D040208DF804000DF10500FDF7EC
:1033F000C1F864200090812301AA29460748FEF7FE
:10340000DBFC002803D1641CE4B2082CD2D322B028
:1034100070BD00001400002058010020840000202E
:103420007047FEF749BF000030B593B030216846C1
:10343000FDF739F914210CA8FDF735F91E480025D0
:10344000016841F080510160006800F080501190E7
:103450001A48016841F4804101600068022400F4C8
:103460008040119001200090000401908001CDE97E
:103470000640082008904FF4A870CDE90904042004
:103480000B906846FFF78EF808B172B6FEE70CA9FC
:103490000F2081E831004FF4A0500F904FF480507E
:1034A000109005210CA8FEF793FF002801D072B6FA
:1034B000FEE713B030BD000040380240007000400D
:1034C0000248016841F470010160704788ED00E036
:1034D00001680C3151E8002F22F4907241E800237A
:1034E000002BF5D10168143151E8002F22F00102C0
:1034F00041E80023002BF5D1016B012909D10168B6
:103500000C3151E8002F22F0100241E80023002B7B
:10351000F5D1202180F8421000210163704700009E
:1035200070B5044600680169E26821F44051114316
:1035300001612169A068E269084361691143084398
:103540002168CA6849F20C639A430243CA60206842
:103550004169A26921F440711143416131492068F8
:10356000884202D03049884202D1FEF7DBFF01E0F9
:10357000FEF7C8FFE2690023192164253226B2F55F
:10358000004F626828D0A0FB0101930F9200FCF766
:103590007BFE0146B0FBF5F06FF01802504301EBE3
:1035A000800006EB0010B0FBF5F000F0F002B1FB7C
:1035B000F5F002EB0012B1FBF5F06FF01803584381
:1035C00001EB800006EB0010B0FBF5F000F00F00FF
:1035D00021681044886070BDA0FB010192185B4116
:1035E000FCF752FE0146B0FBF5F00201B1FBF5F02D
:1035F0006FF01803584301EB800006EBC000B0FBEE
:10360000F5F000F0F80002EB4002B1FBF5F0584392
:1036100001EB800006EBC000B0FBF5F000F0070006
:10362000D6E7000000100140001401402DE9F843E6
:10363000984617460D460446089E24E0701C22D08A
:10364000FEF73AFAA0EB0800B0421AD8CEB12068D3
:10365000C168490717D5802D15D0402D13D00168BA
:10366000C94309070FD4016800254068009020462F
:10367000FFF72EFF0820606484F840500120BDE869
:10368000F8830320FBE72068006835EA000004D0D7
:103690000020B842D2D00020F1E70120F9E7FEE790
:1036A00003B401984100009850EAC12018BF0420DB
:1036B0004A0D18BF40F0010040F2FF72B2EB515FBB
:1036C00008BF40F00200012808BF052002B0704783
:1036D0000907090E002804DB00F1E02080F800143F
:1036E000704700F00F0000F1E02080F8141D7047D3
:1036F00030380A2801D201207047002070470000AE
:1037000070B504462DED028B1C2290ED000A2A486C
:1037100021466569D0ED000A90ED011A30EE600A8D
:10372000D4ED010A70EEC10AB0EEC00A90ED021AA3
:10373000F0EEE00A30EE200AD4ED020A70EEC10A83
:10374000F0EEE00A30EE208AFCF759FF18EE100A7E
:103750001A4988421CDA94ED030A1948B0EEC00AEF
:1037600010EE101A814213DA94ED040AB0EEC00A8A
:1037700010EE101A81420BDA94ED050AB0EEC00A81
:1037800010EE101A814203DA0120BDEC028B70BDED
:103790000C48854201DD0320F7E70B48854201D93B
:1037A0000420F2E718EE100A0849884201DD0220E1
:1037B000EBE70020E9E700003C0100206666E63EFA
:1037C000000040410000A0420000A0C26666E63F43
:1037D000532852D01CDC47283DD00CDC412831D086
:1037E00004DC20282CD03A282AD164E043282CD0AD
:1037F000452825D12CE04E2836D004DC49282DD090
:103800004B281DD12DE04F2831D0522818D131E05E
:10381000672841D00CDC572838D004DC54282FD03E
:1038200055280DD12FE05F2848D0652808D130E019
:10383000722834D0732835D0742836D0752837D004
:10384000204870471F48401D70471E480A30704787
:103850001C480F3070471B48143070471948193006
:10386000704718481E307047164823307047154877
:103870002830704713482D30704712483230704757
:103880001048373070470F483C3070470D48413082
:1038900070470C48463070470A484B30704709481B
:1038A0005030704707485530704706485A307047C7
:1038B00004485F30704703480A3870470148401F8A
:1038C00070470000DE3A0008FEF7FEFCFFF7ACFD93
:1038D000FFF71EFCFFF75CFCFFF77AFCFFF798FC94
:1038E000FDF7D7FEFDF7E0FEFCE700000EB5642310
:1038F0008DE80E0002460123D0210448FEF7F2FABB
:10390000002801D04FF0FF300EBD00003000002035
:1039100003B583B06423012204A98DE80E00134689
:103920000246D0210448FEF7DFFB002801D04FF00B
:10393000FF3005B000BD000030000020002816DB7D
:10394000002914DB802812DA402910DACB0800EBBA
:10395000C31083B201F0070101208840C1B20448BE
:10396000002AC25C01D00A4300E08A43C254704777
:10397000580100201CB5002101918DF80500084870
:103980004FF0FF34018841B164200090022301AA66
:103990000448FEF711FA002800D020461CBD0000A4
:1039A000140000208400002010B500290AD00878F7
:1039B000002807D005487844FDF75CFA002801D0BC
:1039C000002010BD0248784410BD00005A020000DB
:1039D000520200000808A0F500114FEA31017047BB
:1039E00043004FEAD30C4FEA3C0C43401FBF400753
:1039F0000CF1605113F0FE4F70471CF0006F03D1C3
:103A000000200CF0004170470CF0004343EA507076
:103A100010B540EACC0000F00EF800BF00000092A4
:103A20004FEA0001FFF7D6BF4FF000414FF0000012
:103A3000A1F5002170470EF1020E2EF0030E5EF884
:103A4000044B244204D44FEA4102B2F17F4F11D813
:103A50004FEA4003B3F17F4F0CD80ED14FEAD07C30
:103A6000B2F17F4F0CEB4C0C0CF1020C08BF4CEB8D
:103A7000D17C04E04FF0080C01E04FEAD17C0CEB64
:103A80004C0324FA03F404F00704B4F1040C06D246
:103A90000EEB840CBDE810404CF0010C6047DFE8F1
:103AA0000CF0070802024FF00040A0F5800010BDA6
:103AB0000846420018BFD2F1807288BF00F0004073
:103AC00010BD4FF04070E1EE100A7047FCF747BFA1
:103AD00078007A0000363600004040404040000048
:103AE0000000007E1111117E3E414141227F494973
:103AF00049413E4149497A00417F41007F081422F3
:103B0000417F0204087F3E4141413E7F0919294619
:103B1000464949493101017F01013F4040403F7F13
:103B20002018207F385454541818A4A4A47C7C086E
:103B30000404084854545424043F4440203C40406A
:103B4000207C0000000000000000010203040607C2
:103B50000809000000000102030400000240000008
:103B6000000000A00000000005400000000000C8A8
:103B7000000000000C4000000000409C000000001D
:103B8000194000000020BCBE0000000034400000CE
:103B9000BFC91B8E00000004B5400000504BCFD0C1
:103BA0006607E2CF010000006C4100003E8251AA8E
:103BB000DFEEA73401000000D9420000DCB5A0E22E
:103BC0003A301F97FFFFFFFFB4450000FD25A0C856
:103BD000E9A3C14FFFFFFFFFFF3F0000000000808F
:103BE00000000000FF3F0000000000800000000017
:103BF0002C3C00080000002030000000C401000838
:103C00005C3C000830000020880B0000E001000848
:103C10001C00000043000000F8FFFFFF0C00000044
:103C20000E0000000F0000002E0000000000000049
:103C30000000000000000000000000000000000084
:103C40000000000000000000000000000100000073
:0C3C500010000000000000000024F40040
:040000050800018965
:00000001FF
