:020000040800F2
:10000000A00E0020490200083B4700082D3F0008D1
:1000100039470008312B0008854B0008000000001C
:100020000000000000000000000000000D49000872
:10003000A92B0008000000006D4700080F490008C8
:1000400063020008630200086302000863020008FC
:1000500063020008630200086302000863020008EC
:1000600063020008630200086302000863020008DC
:1000700063020008630200086302000863020008CC
:1000800063020008630200086302000863020008BC
:1000900063020008630200086302000863020008AC
:1000A000630200086302000863020008630200089C
:1000B000630200086302000863020008630200088C
:1000C000630200086302000863020008630200087C
:1000D000630200086302000863020008630200086C
:1000E000630200086302000863020008630200085C
:1000F000630200086302000863020008630200084C
:10010000630200086302000863020008630200083B
:10011000630200086302000863020008630200082B
:10012000630200086302000863020008630200081B
:10013000630200086302000863020008630200080B
:1001400063020008630200086302000863020008FB
:1001500063020008630200086302000863020008EB
:1001600063020008630200086302000863020008DB
:100170006302000863020008630200080000000038
:10018000630200086302000800F002F800F04CF877
:100190000AA090E8000C82448344AAF10107DA45E2
:1001A00001D100F041F8AFF2090EBAE80F0013F0E8
:1001B000010F18BFFB1A43F001031847E853000072
:1001C00008540000103A24BF78C878C1FAD8520702
:1001D00024BF30C830C144BF04680C6070470000C1
:1001E0000023002400250026103A28BF78C1FBD840
:1001F000520728BF30C148BF0B607047662905F021
:100200005980642900F0D480002070471FB505F0A4
:100210004CF800F00BFD04000020002104F0B8FFB2
:10022000E0601FBD10B510BD00F004FE1146FFF7E1
:10023000EDFF04F03BFF00F022FE03B4FFF7F2FFF6
:1002400003BC00F065FE00000948804709480047EC
:10025000FEE7FEE7FEE7FEE7FEE7FEE7FEE7FEE776
:10026000FEE7FEE704480549054A064B70470000D3
:10027000AD49000889010008A0080020A00E002058
:10028000A00A0020A00A002053EA020C00F06980B6
:100290002DE9F04B4FF00006002B1FBFB3FA83F59A
:1002A00003FA05F424FA05F65E4012BF1643B2FACB
:1002B00082F502FA05F4C5F120051EBF22FA05FCFD
:1002C00044EA0C04203556EA044C4FEA144418BFA3
:1002D000641C4FF000084FF00009904271EB030CD2
:1002E00039D3002919BFB1FA81F701FA07F6B0FA3C
:1002F00080F700FA07F6C7F120071EBF20FA07FCB7
:1003000046EA0C062037B6FBF4FCA7EB0507103FC6
:1003100007F01F0BCBF120060CFA0BFB2CFA06F6AC
:1003200044BFB3460026202FA4BF5E464FF0000B0B
:100330005BEA060C08BF4FF0010B19EB0B09ABFB96
:10034000027C48EB0608C01B06FB02CC0BFB03CC6F
:1003500071EB0C01C1E70B46024641464846BDE839
:10036000F08B13B54FF000004FF00001AFF30080A9
:10037000BDE81C40704700000FB47CB50C0009AA12
:10038000009001D02044401E084B7B4469460190F8
:10039000089800F02AFC05461CB10020694600F0D0
:1003A00037FC28467CBC5DF814FB00008D0800007B
:1003B0002DE9F0410646002410687529314616A53E
:1003C00010D0AFF30080002802DA404213A507E006
:1003D00031688A0701D512A502E0490704D511A5A5
:1003E000012401E0AFF3008000210A2206F1240776
:1003F00009E0B0FBF2FCB0FBF2F302FB1C00303072
:1004000078541846491C0028F3D123462A46304622
:10041000BDE8F04100F07CB9000000002D000000B4
:100420002B000000200000002DE9F0474FF0000AEB
:1004300089460446C0F820A02046E1688847002885
:1004400076D0252806D0D4E901219047206A401CA7
:100450002062F1E7E168204600258847C4F81CA027
:1004600006460027C4F818A02A2E09D0304604F00A
:10047000CDFC38B304EB8708303EC8F8186019E0AB
:1004800059F8041B204604EB87029161E168884714
:10049000012F064618D1E069002820DA25F0200552
:1004A0001DE0D8F8180000EB800006EB4000303863
:1004B000C8F818002046E1688847064604F0A6FC04
:1004C0000028EED1012F0AD02E2E08D12046E16857
:1004D00088477F1C0646022F45F02005C4DBA06933
:1004E000002803DA404245F00105A061E80701D089
:1004F00025F01005B6B1A6F14100192802D8203622
:1005000045F400654A463146204625604D46FFF7D2
:1005100075FE58B1012806D0ED1D25F0070000F149
:10052000080989E704E005F1040985E730468AE710
:10053000206ABDE8F08710B5431C02E010F8011BEB
:1005400071B18107FAD14FF0013202C88C1A8C4385
:1005500014EAC211F9D0C01A0A0603D0C01E10BD99
:10056000C01A10BD0A0401D0801E10BD0902FCD0C3
:10057000401E10BD032A40F2308010F0030C00F042
:10058000158011F8013BBCF1020F624498BF11F8CD
:1005900001CB00F8013B38BF11F8013BA2F1040286
:1005A00098BF00F801CB38BF00F8013B11F00303FE
:1005B00000F02580083AC0F0088051F8043B083A62
:1005C00051F804CBA0E80810F5E7121D5CBF51F804
:1005D000043B40F8043BAFF30080D20724BF11F87E
:1005E000013B11F801CB48BF11F8012B24BF00F8E3
:1005F000013B00F801CB48BF00F8012B704710B554
:10060000203AC0F00B80B1E81850203AA0E818500A
:10061000B1E81850A0E81850BFF4F5AF5FEA027CCB
:1006200024BFB1E81850A0E8185044BF18C918C03A
:10063000BDE810405FEA827C24BF51F8043B40F8DB
:10064000043B08BF7047D20728BF31F8023B48BFC0
:1006500011F8012B28BF20F8023B48BF00F8012BFE
:1006600070474FF000020429C0F0128010F0030C14
:1006700000F01B80CCF1040CBCF1020F18BF00F895
:10068000012BA8BF20F8022BA1EB0C0100F00DB844
:100690005FEAC17C24BF00F8012B00F8012B48BFA2
:1006A00000F8012B70474FF0000200B51346944646
:1006B0009646203922BFA0E80C50A0E80C50B1F1BA
:1006C0002001BFF4F7AF090728BFA0E80C5048BFCE
:1006D0000CC05DF804EB890028BF40F8042B08BF6C
:1006E000704748BF20F8022B11F0804F18BF00F868
:1006F000012B704770477047704710B500F09AFAA9
:10070000006810BD10B5044600F094FA046010BDF6
:100710002DE9F0470D4699469246044600F124081B
:100720000168880604D5E06921F01001216000E02D
:100730000120A84201DD471B00E00027A1697A19CA
:1007400002EB0900081AA0612078C00602D42046F6
:10075000AFF30080002608E0D4E901211AF8060072
:100760009047206A401C761C20624E45F4DB2078BE
:10077000C0060AD52046AFF3008006E0D4E9012187
:1007800030209047206A401C2062381EA7F10107E4
:10079000F4DC07E0D4E9012118F805009047206A4D
:1007A000401C2062281EA5F10105F3DC2046AFF3B2
:1007B00000802078000602D50220BDE8F0870120E5
:1007C000FBE770472DE9FF4F0C461E464FF0FF3701
:1007D0008BB0D2E90001DDF860800A908A46C1F34F
:1007E0000A5505B93D46002108464FF00000BAF110
:1007F000000F00F4400005DA00EB80004FF44001E8
:1008000001EA50004FEA9059B9F1010F00DDB946F5
:100810000A9850EA4A000ED044F61050A5F2FF356F
:1008200045432F14B8F1000F1ED07542291E1EDD5E
:10083000C9F100021CE0B8F1010F4FF0000001D037
:10084000302103E0F24305E02154401CB042FBDBC1
:1008500030460022002121540B99C1F80880C1E9DB
:1008600000200FB0BDE8F08FBD1B6D1CDEE74A46CF
:1008700000DA694206A800F067FA06AB93E80700C1
:1008800003AB83E8070050460A9901F03DFD8DE86F
:100890000700A0F500501F3800900398002D0ADDD6
:1008A00042F21F014A460844002303A90390684608
:1008B00001F0A6FF09E0A0F500504A461F380023CA
:1008C00003A90390684601F0B0FF8DE8070000041B
:1008D000000C03D04FF0FF30410800E01046B8F1A3
:1008E000000F03D00022009215461EE0751E05D4AD
:1008F00000F0A4F9303262556D1EF9D5B3460122DD
:10090000084302D000227F1C04E02078302801D167
:1009100000227F1E002A099784D01DE0112D07DADE
:1009200000F08CF9303262556D1C50EA0102F5D1AD
:10093000084302D00098C8B10EE00021681E05E00F
:10094000235C625C63542254401E491C8142F7DBE5
:10095000AB46A81B401E0990002004F80B000B9822
:10096000099AC0F80880C0E9002B7AE711264FF0F9
:10097000000857E72DE9F04F88460446D21D22F0C3
:10098000070191B0D1E90001CDE90A0104F0FBF8BB
:1009900002460B98C00F01D02D2007E02068810788
:1009A00001D52B2002E0202101EAC000032A099092
:1009B00001D0072A05DB03464146204600F084F9B2
:1009C0000BE12078800601D5E06900E00620B8F14F
:1009D000650F814606D0B8F1660F18D0B8F1670FE1
:1009E00070D131E00020B9F1110F009001DB11232B
:1009F00001E009F101030AAA01A90CA8FFF7E2FE30
:100A0000DDE90C70002609F10105834647E001206D
:100A10004B4600904FF000470AAA01A90CA8FFF727
:100A2000D1FEDDE90DB00C995D46002610B909F143
:100A300001000D18B9EB050003D4C0F1FF3609F130
:100A40000105A5EB09002BE0B9F1010F01DA4FF028
:100A500001090020B9F1110F0090484601DD112372
:100A600000E003460AAA01A90CA8FFF7ABFEDDE9E6
:100A70000C704D4600268346207800070AD4AB450B
:100A800000DA5D4601A8012D04DD411911F8011CB1
:100A9000302907D04F4502DA17F1040F04DA01209C
:100AA00082460FE06D1EEEE7002F02DCED1B3E4498
:100AB00003E0781CA84200DD7D1CB81B00F1010A90
:100AC0004FF000472078000703D4AA4501DB4FF020
:100AD000FF3A0021B7F1004F0DF143088DF84310A4
:100AE00024D002202B23002F01DA7F422D230A215C
:100AF000021EA0F1010000DC5FB197FBF1FC97FB47
:100B0000F1F201FB1C7C17460CF1300C08F801CD0A
:100B1000EEE7A8F1010003702188090501D5452100
:100B200000E06521A0F1010800F8011C09980FA957
:100B3000A1EB0807FF1D00B10120411901EBEA708C
:100B4000A1693844081A401EA0612078C00602D46A
:100B50002046AFF30080099828B1D4E901219047DD
:100B6000206A401C20622078C00622D52046AFF3C0
:100B700000801EE0002E04DBB34502DD01A8805D8D
:100B800000E03020D4E901219047206A401C206217
:100B9000761CAAF101005FEA000A0AD100F046F8CB
:100BA000C0680168405CD4E901219047206A401C7C
:100BB0002062281EA5F10105DCDC07E0D4E9012153
:100BC00018F8010B9047206A401C2062381EA7F1DC
:100BD0000107F3DC2046AFF30080032011B041E6AB
:100BE00001694A1C02610878704700B58FB0CDE9F1
:100BF00001310021059105497944CDE903101146E1
:100C00006846FFF711FC0FB000BD0000E5FFFFFFD5
:100C10000A6802F8010B0A607047D1E900239A4282
:100C200002D2531C0B6010707047000000487047E0
:100C3000FC05002000487047DC05002030B5B0F10D
:100C40000A024FEA900E71F100034EEA817EB0EB8A
:100C50000E0061EB91014FEA101E4EEA017E10EB8F
:100C60000E0041EB11114FEA102E4EEA016E10EB0F
:100C70000E0041EB11214FEA104E4EEA014E10EBEF
:100C80000E0041EB1141401841F100014FEAD00044
:100C900040EA41704FEAD10110EB80054FEA810430
:100CA00044EA907444EB01046D1944EB0404521BB4
:100CB000A3414FF0000348BF0A3200D530BD401CAD
:100CC00041F1000130BD00002DE9F0411F4604460E
:100CD00003260168072A01F4006004DB08B116A5A9
:100CE00005E016A503E008B115A500E015A521F063
:100CF00010002060A069C01EA0610FB1401EA0615D
:100D00002046AFF300804FB1D4E901213846904727
:100D1000206A401C2062C01C206206E0206AFAE7BC
:100D2000D4E9012115F8010B9047761EF8D2204630
:100D3000AFF30080BDE8F0814E414E006E616E0061
:100D4000494E4600696E66002DE9F0478146164619
:100D50008AB0354878440DC88DE80D003248784493
:100D6000801C03AC0DC884E80D0041F69B3008449C
:100D7000372190FBF1F290FBF1F5A5F1800501FB25
:100D800012041B3C02D56442012000E00020DFF881
:100D900098A080460027FA44AAF1BE0A0EE0E007B8
:100DA0000AD03246684607EB470101230AEB81016E
:100DB00001F03BFD8DE8070064107F1C002CEED194
:100DC000194F7F44AE3F19E0E80715D007EB041038
:100DD0000DF1180A90E80E008AE80E00C068F04293
:100DE00001D1981908903246012306A903A801F001
:100DF0001CFD03AB83E807006D10641C002DE3D1DC
:100E00004FF0010332466946B8F1000F03A802D043
:100E100001F0F6FC01E001F008FDC9E90001C9F8A4
:100E200008200AB0BDE8F087A046000000487047DF
:100E3000DC0500207546FFF7F9FFAE460500694660
:100E4000534620F00700854618B020B5FFF70AFA90
:100E5000BDE820404FF000064FF000074FF00008BB
:100E60004FF0000B21F00701AC46ACE8C009ACE83C
:100E7000C009ACE8C009ACE8C0098D46704710B5A0
:100E80000446AFF300802046BDE81040FFF7D5B917
:100E90004FF0013C50F8042B51F8043B9A4221D109
:100EA000A2EB0C03934313EACC1317D150F8042B95
:100EB00051F8043B9A4215D1A2EB0C03934313EA79
:100EC000CC130BD150F8042B51F8043B9A4209D1B2
:100ED000A2EB0C03934313EACC13DBD04FF00000DA
:100EE000704700BFD01A01BAB1FA81F101F01801C0
:100EF00022FA01F0CB40C1F12001DBB2C0B2C01A2E
:100F00002CFA01F3D11A914311EAC311E6D17047CB
:100F100001491820ABBEFEE7260002007047000022
:100F20002DE9F04F89B0129C0291012CC0F2828011
:100F30009446002B00F1C401064606916EDD4FF683
:100F4000FC70C7F6FF7003EA000504EB44004FEAAB
:100F5000800806F1D000029A03F0030E4FEA04194C
:100F600001904FEAC40A4FEA840B002008900593D1
:100F7000CDE903CE13E000BF089F07EB4700C00098
:100F80000CEB0002304600F075FA079ADDE903CE5B
:100F90000137059BA74202F1040208974AD0042BAF
:100FA0004FF00000079201D2069914E0019F0699C4
:100FB0001368043047F80C3C52F80B30854247F870
:100FC000083C52F80A3047F8043C52F808304A44CA
:100FD00047F8103BECD1BEF1000FCDD0029A089B30
:100FE000BEF1010F02EB830700FB04F257F8222049
:100FF00041F82020C0D0421C02FB04F357F82330F4
:10100000BEF1020F41F82230B6D0023000FB04F2EC
:1010100057F8222041F82020AEE700BF3546069E53
:10102000284631466246674600F024FA013C07F143
:10103000180CF5D109B0BDE8F08F0000012BB8BF46
:10104000704710B503F0030C9C084FF0000E00F041
:10105000858024F0604400F15C0301F11C02AEEBDA
:101060008404B0EE080A00BF13ED161A13ED172A18
:1010700013ED153A32EE011A31EE031A81EE001A21
:10108000AEF1040E744502ED071A13ED131A13EDB9
:10109000142A13ED123A32EE011A31EE031A81EEE0
:1010A000001A02ED061A13ED101A13ED112A13EDB2
:1010B0000F3A32EE011A31EE031A81EE001A02EDF8
:1010C000051A13ED0D1A13ED0E2A13ED0C3A32EE3C
:1010D000011A31EE031A81EE001A02ED041A13ED23
:1010E0000A1A13ED0B2A13ED093A32EE011A31EE0A
:1010F000031A81EE001A02ED031A13ED071A13ED1D
:10110000082A13ED063A32EE011A31EE031A81EE87
:10111000001A02ED021A13ED041A13ED052A13ED5D
:10112000033A32EE011A31EE031A81EE001A02ED93
:10113000011A13ED011A13ED022A93ED003A32EE73
:10114000011A31EE031A81EE001A03F1600382EDF9
:10115000001A02F1200287D1CEF1000EBCF1000F7F
:1011600071D00EEB4E0200EBC20292ED000A92ED3E
:10117000011A92ED022A30EE010A30EE021AB0EEA8
:10118000080A81EE001A01EBCE03BCF1010F83EDDA
:10119000001A92ED031A92ED042A92ED053A31EE0F
:1011A000021A31EE031A81EE001A83ED011A4AD0B9
:1011B0000EF1010202EB420300EBC30393ED001AB0
:1011C00093ED012A93ED023A31EE021A31EE031A41
:1011D00081EE001A01EBC202BCF1020F82ED001A8F
:1011E00093ED031A93ED042A93ED053A31EE021ABA
:1011F00031EE031A81EE001A82ED011A23D00EF1AE
:10120000020202EB420300EBC30090ED001A90EDE6
:10121000012A90ED023A31EE021A31EE031A81EE04
:10122000001A01EBC20181ED001A90ED031A90ED56
:10123000042A90ED053A31EE021A31EE031A81EEDE
:10124000000A81ED010ABDE81040704792B112F02A
:10125000030C15D090ED000A91ED001ABCF1010FBE
:1012600020EE010A12D104300431A2F1010C042A4B
:101270002CD254E09FED2B0A83ED000A704700BF8B
:101280009FED280A9446042A20D248E090ED011AE6
:1012900091ED012ABCF1020F21EE021A30EE010A93
:1012A00006D108300831A2F1020C042A0ED236E031
:1012B00090ED021A91ED022A0C3021EE021A0C3147
:1012C00030EE010AA2F1030C042A28D3A0F1100287
:1012D000A1F1100092ED041A90ED045A92ED052A46
:1012E00090ED056A92ED063A90ED067A21EE051A28
:1012F00092ED074AD0ED070A30EE010A22EE061AF7
:1013000030EE010A23EE071A30EE010A24EE201A0D
:101310001032103030EE010ABCF1040CDAD183ED4A
:10132000000A70470000000071B111F0030311D0F2
:1013300090ED000A012B20EE000A11D104304B1E63
:10134000042925D241E000BF9FED210A82ED000A69
:10135000704700BF9FED1E0A0B46042918D234E0E7
:1013600090ED011A022B21EE011A30EE010A05D18F
:1013700008308B1E04290BD227E000BF90ED021A23
:101380000C3021EE011A30EE010ACB1E04291CD3C9
:10139000103800BF90ED041A90ED052A90ED063A42
:1013A00021EE011A90ED074A30EE010A22EE021AF0
:1013B00030EE010A23EE031A30EE010A24EE041A7D
:1013C000103030EE010A043BE4D182ED000A704790
:1013D00000000000002A4BD012F003030CD090ED67
:1013E000001A012B20EE011A81ED001A06D10430FB
:1013F0000431531E17E000BF134614E090ED011AAC
:10140000022B20EE011A81ED011A03D108300831B8
:10141000931E08E090ED021A0C3020EE011A81EDC7
:10142000021A0C31D31E042A38BF7047A0F11002F3
:10143000A1F1100092ED041A043B20EE011A80ED98
:10144000041A92ED051A20EE011A80ED051A92EDAC
:10145000061A20EE011A80ED061A92ED071A02F123
:10146000100220EE011A80ED071A00F11000E1D100
:10147000704700000020C2E90000C2E90200C2E992
:10148000040091ED000A20EE001AB1EEC11A82EDBF
:10149000040A82ED050A82ED000A91ED002AB0EE01
:1014A000C03A32EE400A20EE000AB1EEC02A82EDC8
:1014B000030A83EE011A82ED022A82ED011A7047B7
:1014C0002DE9F04F81B02DED0C8B86B00446D0F89D
:1014D00094010091002804F10C00019000F0BE80FE
:1014E000009F002605AA38460C21059600F060FEF4
:1014F00004AD019839460C222B46049600F04AFEB2
:101500009DED048A04F13C0039460C222B460496DA
:1015100000F040FE9DED049A04F16C0039460C2267
:101520002B46049600F036FE9DED04AA04F19C00C3
:1015300039460C222B46049600F02CFE9DED04BA91
:1015400004F1CC0039460C222B46049600F022FE12
:101550009DED04CA04F1FC0039460C222B4604968A
:1015600000F018FE9DED04DA04F5967039460C2261
:101570002B46049600F00EFE9DED050A9FEDCB1A5A
:10158000B4EE410AF1EE10FA14DA94ED570A0FF2B4
:101590007C40B0EEC00AB4EE410AF1EE10FAB8BFDA
:1015A000043090ED000A06B0BDEC0C8B01B0BDE834
:1015B000F08F00BF28EE082A29EE093A32EE032AFE
:1015C0002AEE0A3A32EE032A2BEE0B3A9DED041A6C
:1015D00032EE032A2CEE0C3A32EE032A2DEE0D3AAF
:1015E00032EE032A21EE011A32EE011A81EE008A50
:1015F0009FEDAF0A9FEDAF1A9FEDAF2A38EE000ABC
:1016000030EE010A20EE020A03F0F8FAB7EE002AE3
:101610009FEDAA1A30EE020A81EE000A9FEDA83A69
:10162000B4EE438AF1EE10FA38DD30EE022A9FED77
:10163000A50AB4EE412AF1EE10FAC8BFB0EE412A75
:10164000B4EE402AF1EE10FAC8BFB0EE420A06B07E
:10165000BDEC0C8B01B0BDE8F08F00BF0120019DF7
:10166000C4F894010020059005AA28460C2100F03A
:1016700093FD9DED050A9FEDE28A84ED570AB4EED5
:10168000480AF1EE10FA25DDB7EE001A81EE000AE5
:10169000284629460C2200F08DFD1FE0BFEE001AFF
:1016A0009FEDD82A30EE011AB4EE421AF1EE10FA8C
:1016B000C8BFB0EE421A9FEDD40AB5EE401AF1EE63
:1016C00010FAC8BFB0EE410A06B0BDEC0C8B01B0F9
:1016D000BDE8F08F28463021FEF7E5FF04F13C0518
:1016E0000020059005AA28460C2100F055FD9DED2F
:1016F000050AB4EE480AF1EE10FA84ED580A09DD45
:10170000B7EE001A81EE000A284629460C2200F0A6
:1017100051FD03E028463021FEF7C5FF04F16C05BA
:101720000020059005AA28460C2100F035FD9DED0E
:10173000050AB4EE480AF1EE10FA84ED590A09DD03
:10174000B7EE001A81EE000A284629460C2200F066
:1017500031FD03E028463021FEF7A5FF04F19C058A
:101760000020059005AA28460C2100F015FD9DEDEE
:10177000050AB4EE480AF1EE10FA84ED5A0A09DDC2
:10178000B7EE001A81EE000A284629460C2200F026
:1017900011FD03E028463021FEF785FF04F1CC055A
:1017A0000020059005AA28460C2100F0F5FC9DEDCF
:1017B000050AB4EE480AF1EE10FA84ED5B0A09DD81
:1017C000B7EE001A81EE000A284629460C2200F0E6
:1017D000F1FC03E028463021FEF765FF04F1FC052B
:1017E0000020059005AA28460C2100F0D5FC9DEDAF
:1017F000050AB4EE480AF1EE10FA84ED5C0A09DD40
:10180000B7EE001A81EE000A284629460C2200F0A5
:10181000D1FC03E028463021FEF745FF04F596751C
:101820000020059005AA28460C2100F0B5FC9DED8E
:10183000050AB4EE480AF1EE10FA84ED5D0A09DDFE
:10184000B7EE001A81EE000A284629460C2200F065
:10185000B1FC03E028463021FEF725FF04F5AE7009
:1018600002904FF4B07000274FF0000A03900AE096
:1018700003980AF1010A3037BAF1060F00F10400AB
:1018800003903FF42DAE029800EB8A0090ED000A21
:10189000B4EE480AF1EE10FAEADD01990AEB4A00CB
:1018A000DDF80C8001EB0015B94614E05F7089305B
:1018B00008B26BBF54FF603D000020C20000C84268
:1018C00008B26B3F0000B64209F13009B9F5907FCC
:1018D00008F10408CCD004EB080090ED000AB4EE47
:1018E000480AF1EE10FAEFDD04EB090B0BF13C06B0
:1018F00000200590304629460C2205AB00F04AFC3A
:101900009DED050AB5EE400AF1EE10FADCD095ED3A
:10191000001A96ED002A20EE011A32EE411A86EDE9
:10192000001A95ED011A9BED102A20EE011A32EEF5
:10193000411A8BED101A95ED021A9BED112A20EE3B
:10194000011A32EE411A8BED111A95ED031A9BED37
:10195000122A20EE011A32EE411A8BED121A95ED81
:10196000041A9BED132A20EE011A32EE411A8BED78
:10197000131A95ED051A9BED142A20EE011A32EE8A
:10198000411A8BED141A95ED061A9BED152A20EEDF
:10199000011A32EE411A8BED151A95ED071A9BEDDF
:1019A000162A20EE011A32EE411A8BED161A95ED29
:1019B000081A9BED172A20EE011A32EE411A8BED20
:1019C000171A95ED091A9BED182A20EE011A32EE2E
:1019D000411A8BED181A95ED0A1A9BED192A20EE83
:1019E000011A32EE411A8BED191A95ED0B1A9BED87
:1019F0001A2A20EE010A32EE400A8BED1A0A63E73A
:101A00005F7089300000B24200000000000000005A
:101A10000000C84210B5044642B1201D4FF4CA72FE
:101A2000FEF7EDFD0120206010BD00BF04F10C00A9
:101A30004FF4C671FEF737FE0120206010BD000094
:101A40002DE9F04F81B02DED0A8B84B0044600687B
:101A50000D46002800F0D480D4F88C11D4F89421DD
:101A6000481C012AC4F88C01C0F2D5800022C4F8B9
:101A7000942100BFA31894ED570A93ED031A93ED38
:101A8000042A20EE010A83ED030A94ED580A93ED2F
:101A9000051A20EE020A83ED040A94ED590A93ED2B
:101AA000062A20EE010A83ED050A94ED5A0A93ED09
:101AB000071A20EE020A83ED060A94ED5B0AB2F5DE
:101AC000907F20EE010A83ED070A94ED5C0A93ED06
:101AD000081A20EE010A83ED080A94ED5D0A93EDE1
:101AE000091A20EE010A83ED090A94ED5E0A93EDCE
:101AF0000A1A20EE010A83ED0A0A94ED5F0A93EDBB
:101B00000B1A20EE010A83ED0B0A94ED600A93EDA7
:101B10000C1A20EE010A83ED0C0A94ED610A93ED94
:101B20000D1A20EE010A83ED0D0A94ED620A93ED81
:101B30000E1A20EE010A83ED0E0A6CD094ED570ABE
:101B400093ED0F1A93ED102A20EE010A83ED0F0A90
:101B500094ED580A93ED111A20EE020A83ED100A53
:101B600094ED590A93ED122A20EE010A83ED110A31
:101B700094ED5A0A93ED131A20EE020A83ED120A2D
:101B800094ED5B0A603220EE010A83ED130A94EDB6
:101B90005C0A93ED141A20EE010A83ED140A94ED09
:101BA0005D0A93ED151A20EE010A83ED150A94EDF6
:101BB0005E0A93ED161A20EE010A83ED160A94EDE3
:101BC0005F0A93ED171A20EE010A83ED170A94EDD0
:101BD000600A93ED181A20EE010A83ED180A94EDBD
:101BE000610A93ED191A20EE010A83ED190A94EDAA
:101BF000620A93ED1A1A20EE010A83ED1A0A39E7F8
:101C000004F10C004FF4C671FEF74DFD01200021D8
:101C10002060C4F88C0195ED002A9FEDA31A9FED7A
:101C2000A30AB4EE412AF1EE10FAC8BFB0EE412A81
:101C3000B4EE402AB0EE403AF1EE10FAC8BFB0EE72
:101C4000423A84ED573A95ED012AB0EE403AB4EEAF
:101C5000412AF1EE10FAC8BFB0EE412AB4EE402A94
:101C6000F1EE10FAC8BFB0EE423A84ED583A95ED65
:101C7000022AB0EE403AB4EE412AF1EE10FAC8BFA3
:101C8000B0EE412AB4EE402AF1EE10FAC8BFB0EE31
:101C9000423A84ED593A95ED032AB0EE403AB4EE5B
:101CA000412AF1EE10FAC8BFB0EE412AB4EE402A44
:101CB000F1EE10FAC8BFB0EE423A84ED5A3A95ED13
:101CC000042AB0EE403AB4EE412AF1EE10FAC8BF51
:101CD000B0EE412AB4EE402AF1EE10FAC8BFB0EEE1
:101CE000423A84ED5B3A95ED052AB0EE403AB4EE07
:101CF000412AF1EE10FAC8BFB0EE412AB4EE402AF4
:101D0000F1EE10FAC8BFB0EE423A84ED5C3A95EDC0
:101D1000062AB0EE403AB4EE412AF1EE10FAC8BFFE
:101D2000B0EE412AB4EE402AF1EE10FAC8BFB0EE90
:101D3000423A84ED5D3A95ED072AB0EE403AB4EEB2
:101D4000412AF1EE10FAC8BFB0EE412AB4EE402AA3
:101D5000F1EE10FAC8BFB0EE423A84ED5E3A95ED6E
:101D6000082AB0EE403AB4EE412AF1EE10FAC8BFAC
:101D7000B0EE412AB4EE402AF1EE10FAC8BFB0EE40
:101D8000423A84ED5F3A95ED092AB0EE403AB4EE5E
:101D9000412AF1EE10FAC8BFB0EE412AB4EE402A53
:101DA000F1EE10FAC8BFB0EE423A84ED603A95ED1C
:101DB0000A2AB0EE403AB4EE412AF1EE10FAC8BF5A
:101DC000B0EE412AB4EE402AF1EE10FAC8BFB0EEF0
:101DD000423A84ED613A95ED0B2A04F5AE75B4EE06
:101DE000412AF1EE10FAC8BFB0EE412AB4EE402A03
:101DF000D4F89021F1EE10FAC8BFB0EE420A062ADC
:101E000084ED620A36DC0020039003AA28460C21E8
:101E100000F0C2F99DED030A9FEDDD1AB4EE410A10
:101E2000F1EE10FA1FDDD4F89001D5E904C200EB01
:101E30004000D5E90037D5E9026104EB0010C0E9A4
:101E400007C2C0E90561C0E9033705F11807D5E904
:101E50000A658ECFC0E90D6524308EC0D4F890019C
:101E60000130C4F8900104B0BDEC0A8B01B0BDE8AC
:101E7000F08F00BF053900EE101A01EE100AB8EE1F
:101E8000C00AB8EEC11A80EE018AB1EE080A80EEEF
:101E9000019A9FEDBFAA00260DF10C0BB7EE00BA18
:101EA000EA464FF0000815E020BCBE4C20BCBECC7A
:101EB00028460C215246009600F06EF99DED000A6E
:101EC000B4EE4A0AF1EE10FACDDB08F13008B8F5AD
:101ED000A87FC8D004EB080909F10C0738460C218B
:101EE0005A46039600F058F99DED030AB4EE4A0AEB
:101EF000F1EE10FAE9DC284639460C2202AB0296D4
:101F000000F048F99DED030A9DED021A94ED572A61
:101F100081EE000A97ED001A29EE022A28EE011A36
:101F200099ED063A38460C2101AA019620EE022AC4
:101F300031EE021A87ED001A94ED584A99ED041A11
:101F400029EE044A28EE011A20EE044A31EE041A62
:101F500089ED041A94ED591A99ED052A29EE011A12
:101F600028EE022A20EE011A32EE011A89ED051A36
:101F700094ED5A1A28EE032A29EE011A20EE011ACE
:101F800032EE011A89ED061A94ED5B2A99ED071AD3
:101F900029EE022A28EE011A20EE022A31EE021A58
:101FA00089ED071A94ED5C2A99ED081A29EE022AA8
:101FB00028EE011A20EE022A31EE021A89ED081AE3
:101FC00094ED5D2A99ED091A29EE022A28EE011AEC
:101FD00020EE022A31EE021A89ED091A94ED5E2AEA
:101FE00099ED0A1A29EE022A28EE011A20EE022A99
:101FF00031EE021A89ED0A1A94ED5F2A99ED0B1A57
:1020000029EE022A28EE011A20EE022A31EE021AE7
:1020100089ED0B1A94ED602A99ED0C1A29EE022A2B
:1020200028EE011A20EE022A31EE021A89ED0C1A6E
:1020300094ED612A99ED0D1A29EE022A28EE011A73
:1020400020EE022A31EE021A89ED0D1A94ED622A71
:1020500099ED0E1A29EE022A8DED020A28EE011AD8
:1020600020EE020A31EE000A89ED0E0A00F094F823
:102070009DED010AB4EE4A0AF1EE10FA7FF718AFAF
:10208000284639460C2253468BEE00CA009600F0D3
:1020900081F89DED000A97ED001A2CEE000A2CEE57
:1020A000000A94ED572A21EE001A32EE411A84ED0F
:1020B000571A99ED041A94ED582A20EE011A32EEBF
:1020C000411A84ED581A99ED051A94ED592A20EE1B
:1020D000011A32EE411A84ED591A99ED061A94ED5F
:1020E0005A2A20EE011A32EE411A84ED5A1A99ED5D
:1020F000071A94ED5B2A20EE011A32EE411A84EDA4
:102100005B1A99ED081A94ED5C2A20EE011A32EE62
:10211000411A84ED5C1A99ED091A94ED5D2A20EEBE
:10212000011A32EE411A84ED5D1A99ED0A1A94ED06
:102130005E2A20EE011A32EE411A84ED5E1A99ED04
:102140000B1A94ED5F2A20EE011A32EE411A84ED4B
:102150005F1A99ED0C1A94ED602A20EE011A32EE06
:10216000411A84ED601A99ED0D1A94ED612A20EE62
:10217000011A32EE411A84ED611A99ED0E1A94EDAE
:10218000622A20EE010A32EE400A84ED620A8FE6EE
:102190005F708930FFF75AB810B51446FFF7C4F8DE
:1021A00094ED000AB1EEC00A84ED000A10BD0000F3
:1021B000FFF7BAB8FFF70EB900284FF0030218BFB7
:1021C000002901D110467047FF220A7040F23C629C
:1021D000C2F200021278012A1CBF0220704740F2AE
:1021E0004062C2F20002D2F88C210A2ABCBF06204B
:1021F000704710B540F2D872C2F200020346104692
:102200000C46194600F068F8014640F24060C2F200
:102210000000FFF755F99FED0F2AB5EE400A9FED3C
:102220000C1AF1EE10FAB8BFB0EE410AB4EE420A51
:10223000F1EE10FAC8BFB0EE420ABDEEC00A10EED1
:10224000100A00222070BDE810401046704700BF01
:10225000000000000000C84210B5044640F2D870EB
:1022600045F2A451C2F20000C0F6000100F04AF8A5
:1022700040F2406045F21041C2F20000C0F6000199
:102280002246FFF7C7FB40F23C61C2F20001012287
:1022900000200A7010BD000040F23C61C2F2000153
:1022A000097801291CBF0220704710B5014640F291
:1022B000D870C2F2000000F00FF840F24064C2F2A1
:1022C000000401462046FFF7BBFBD4F88C11052023
:1022D0000A29B8BF062010BDB0B582B0051D4FF069
:1022E000060C2A4601230446CDF800C0FEF718FE6E
:1022F00094342846214606220623FEF79FFE2046F8
:1023000002B0B0BD016070475FEA400C08BF91F0B9
:10231000000F4FEA8C234FEAC12243EA51514FEAA2
:102320001C5018BF00F5F0404FEA300018BF41F0D4
:1023300000415FEA6C5C00F02980BCF1FF3F08BF00
:1023400040F080407047130C06BF12044FF0100C91
:102350004FF0000C130E04BF12020CF1080C130F07
:1023600004BF12010CF1040C930F04BF92000CF196
:10237000020CD30F04BF52000CF1010C11464FF0B8
:102380000002A0F11F00A0EB0C00704711F0004FFD
:1023900008BF704731F000413FF4D5AF0B0C06BFCA
:1023A00009044FF0100C4FF0000C0B0E04BF090293
:1023B0000CF1080C0B0F04BF09010CF1040C8B0F7E
:1023C00004BF89000CF1020CCB0F04BF49000CF1D3
:1023D000010CCCF12003A0EB0C0022FA03F302FA6B
:1023E0000CF241EA030100F10100704720F07F4C3C
:1023F00080EA030023F07F47ACEB070303F57C532F
:1024000000F0004003F1FF032DE980494FEA154B2E
:1024100009B44FEA144325EA0B4E24EA03480FF2AD
:10242000042606EB132749083E785FEA320203FBD5
:102430000667C7F5000707FB06F64FEA54374FEA71
:10244000D64606F1020607FB066CCCF1005C4FEAAB
:102450001C472CEA074C07FB06F40CFB06F504EBC3
:1024600015464FEA961634BF00204FF000404FEA61
:10247000D13706FB07FC4FEA1C4C0CFB0BF7D21BB9
:1024800003FB0CF761EB07010CFB0EF7B0EB074009
:1024900072EB17420CFB08F734BFA2EB0742B2EB1A
:1024A000074261EB17414FEA0C444FEA910706FBE4
:1024B00007FC4FEA1C4C0CFB0BF7B0EBC74072EB70
:1024C000573203FB0CF734BFA2EBC742B2EBC74253
:1024D00061EB57310CFB0EF7B0EBC70072EB577294
:1024E0000CFB08F734BFA2EBC702B2EBC70261EBEB
:1024F0005771039F4FEA816141EA921104EBCC04CA
:102500004FEAD1374FEA826206FB07FC42EA90129B
:102510004FEA80604FEA1C4C0CFB0BF7D21B03FB0D
:102520000CF761EB07010CFB0EF7B0EB074072EB09
:1025300017420CFB08F734BFA2EB0742B2EB07428D
:1025400061EB17414FEA8C554FEA910704EB9C244D
:1025500006FB07FC4FEA1C4C0CFB0BF7B0EBC7402B
:1025600072EB573203FB0CF734BFA2EBC742B2EB5E
:10257000C74261EB57310CFB0EF7B0EBC70072EBB3
:1025800057720CFB08F734BFA2EBC702B2EBC702CD
:1025900061EB577115EB4C254FEA816141EA9211CD
:1025A0004FEA82624FEAD13742EA901206FB07FCFB
:1025B00044F100044FEA80604FEA1C4C0CFB0BF71F
:1025C000D21B03FB0CF761EB07010CFB0EF7B0EB22
:1025D000074072EB17420CFB08F734BFA2EB07422F
:1025E000B2EB074261EB174115EB1C154FEA813145
:1025F00041EA92414FEA823242EA90424FEA803009
:102600004FEA0C7644F1000448EA03434EEA0B48D3
:102610004FF0000EB2EB080C71EB030724BF6246CB
:1026200039464EEB0E0E4FF0000B00185241494157
:102630004BEB0B0BB2EB080C71EB03077BF1000BC0
:1026400024BF624639464EEB0E0E4FF0000B0018C9
:10265000524149414BEB0B0BB2EB080C71EB0307FA
:102660007BF1000B24BF624639464EEB0E0E51EA59
:10267000020718BF46F0010616EB0E7655F1000270
:1026800054F1000103D5BDE88901BDE80088BDE82B
:102690008901BDE80048B619524141EB0101A3F19F
:1026A0000103704780807F7E7D7C7B7A79787776A6
:1026B00076757473727171706F6E6E6D6C6C6B6A1F
:1026C0006A696868676666656464636362616160BD
:1026D000605F5F5E5E5D5D5C5C5B5B5A5A5959583A
:1026E00058575756565555555454535352525251A4
:1026F000515050504F4F4F4E4E4D4D4D4C4C4C4BFA
:102700004B4B4A4A4A494949484848474747474640
:10271000464645454544444444434343434242427C
:1027200042414141002B9C4630D477002BD01CB550
:102730004FEA370703B44FF010004FF01001BAF121
:10274000000F06D0BCF1000FDCBF40F0080040F0E5
:1027500008014FF000000FBCBDE810400BF1010B69
:10276000BBF1010F08BF5FEA170722BF12F1010298
:1027700011F101014FF0004143F1000300F000406E
:1027800043EA00007047F9D35708D0E746EA064607
:1027900013F1400F4FEA16461FDD13F1200FDFBF84
:1027A00016430A46002120335B42BED0C3F1200706
:1027B00046EA064602FA07F74FEA164646EA0706D1
:1027C000C3F1200722FA03F201FA07F721FA03F115
:1027D0004FF0000342EA0702A7E746EA020646EA8C
:1027E00006464FEA164646EA0106BCBF46EA0646DA
:1027F000360C4FF000034FF000024FF0000194E759
:102800002DE9804C9A46934670B491E8380007C889
:1028100031EA400C48BF34EA430C03D5FFF7E6FD2C
:10282000FFF780FFF0BCBDE8008C2DE9804C9A4694
:10283000934670B491E8380007C810F0804F08BF85
:1028400013F0804F03D100F005F8FFF76BFFF0BCE9
:10285000BDE8008C20F07F4780EA030023F07F4C26
:1028600007EB0C03A3F57C5300F00040A3F1FE033B
:1028700092F0000F00F0B38095F0000F00F0778029
:102880002DE901494FEA11404FEA144621EA004878
:1028900000FB06FC24EA064708FB06F607FB08F8DF
:1028A00000FB07F718EB06484CEB164C4FEA124BAF
:1028B00018EB07484FEA15464CEB174022EA0B4E3F
:1028C0000BFB06FC25EA06470EFB06F607FB0EFE91
:1028D0000BFB07F71EEB064E4CEB164C4FF00006B9
:1028E0001EEB074E4CEB174B18EB0B0840F10000AA
:1028F00018EB0E0B58EB000840F100008F1A4FF058
:1029000000013CBFC943661B14BFB5EB040C00219A
:102910003CBFC943F61B4FEA17444EEA8E0E27EA26
:1029200004454FEA1C4704FB07622CEA074C05FBF1
:1029300007F70CFB05F604FB0CFC16EB074642EB15
:10294000174216EB0C4642EB1C421BEB060658EBFB
:102950000202414146EA9E0601D5BDE80189B61949
:10296000524141EB0101A3F10103BDE801894FEAA6
:1029700014454FEA114724EA054621EA074C05FBB6
:1029800007F406FB07F70CFB06F105FB0CFC11EB4B
:10299000074144EB17444FEA124711EB0C4144EB5B
:1029A0001C4422EA074C05FB07F206FB07F70CFB69
:1029B00006F605FB0CFC16EB074642EB174216EB3E
:1029C0000C4642EB1C456A1854F1000148BF7047A1
:1029D000B619524141EB0101A3F10103704795F093
:1029E000000F37D04FEA11424FEA144721EA02465E
:1029F00024EA074C02FB07F106FB07F70CFB06F481
:102A000002FB0CFC14EB074441EB17414FEA15475E
:102A100014EB0C4441EB1C4125EA074C02FB07F583
:102A200006FB07F70CFB06F602FB0CFC16EB074651
:102A300045EB174516EB0C4645EB1C42121951F1BC
:102A4000000148BF7047B619524141EB0101A3F1A3
:102A5000010370474FEA14454FEA114724EA05463F
:102A600021EA074C05FB07F106FB07F70CFB06F212
:102A70004FF0000605FB0CFC12EB074241EB17413F
:102A800012EB0C4251EB1C4148BF7047921841EBCE
:102A90000101A3F10103704710B500F013F901F033
:102AA000A9FC01F04BFEBDE8104000F043B8000067
:102AB0002DE9F04100F05AFA194E05467068281ABF
:102AC0000A280AD31748756001F092FC28B9154806
:102AD00000F01CF9306000F03DF8B068281A1428A6
:102AE00010D300F0CFF80F4CB560074694EC060AFF
:102AF00001460D4800F05CF894EC060A39460B4894
:102B000000F056F8F068281A642806D3F56000F043
:102B1000BFF8BDE8F04101F013BEBDE8F081000050
:102B200000000020A4010020040100205401002026
:102B3000FEE70000054800210A46416081600170FF
:102B40004FF48051024800F00BBA00001000002042
:102B5000000C024070B5064600F008FA104C05461D
:102B6000012E02D0022E03D017E00120207014E0C5
:102B7000A068022811D0A660207800280CD06068D8
:102B8000854209D34FF48051064800F0E1F905F57C
:102B9000FA7500206560207070BDA66070BD0000F1
:102BA00010000020000C0240704772B6FEE70000E3
:102BB0002DE9F34F2DED060B12EE900A2DED068B4D
:102BC000B5B0B0EE428AF0EE618AB0EE419AF0EE16
:102BD000609AB0EE40AA02F0F7FA06460F4618EEE9
:102BE000100A02F0F1FA04460D4618EE900A02F0BF
:102BF000EBFACDE9000119EE100A02F0E5FA82467F
:102C00008B4619EE900A02F0DFFA804689461AEEEA
:102C1000100A02F0D9FA024642980B46CDE90B7031
:102C200008A880E87000DDE900018DE80C0FCDE90F
:102C300006010BA2A0210DA8FDF79EFB002808DDD0
:102C40000DA8FDF778FC82B232230DA9419801F05E
:102C500021F935B0BDEC068B08B0BDE8F08F00005F
:102C6000252E33662C252E33662C252E33662C25F7
:102C70002E33662C252E33662C252E33662C2564A8
:102C80000A0000000148C068704700001C000020D6
:102C90000548C06818B1012803D004A0704705A0FA
:102CA000704706A0704700001C000020414E4F4DA9
:102CB000000000004C4541524E0000004E4F524D66
:102CC0000000000010B50F489FED0D0A0E4C80ED7E
:102CD000000A80ED010A80ED020A00206060A06019
:102CE00020706070A070E070E06000F03FF920613B
:102CF0000020FFF7B1FA002801D10120607010BD5B
:102D000000000000C00100201C00002010B502F0EF
:102D1000F7F809494A6890420AD10A78FF2A01D295
:102D2000521C0A70D2B2032A00D38860886810BD92
:102D3000486001200870F9E71C00002070B50446C7
:102D400000F014F90546601C02D0044840680444B1
:102D500000F00CF9401BA042FAD370BD3C000020EB
:102D60002DE9F84FDFF8BCA10022012503264FF022
:102D70000F090AF1040BAAF1040E00BF0B6805FA53
:102D800002F42340A34270D10F7907F00307012F0B
:102D900001D0022F16D187684FEA420806FA08FCD4
:102DA00027EA0C07D1F80CC00CFA08FC4CEA070C17
:102DB000C0F808C04768A7430C79C4F300149440D6
:102DC0003C4344600C79E443A4070AD0C4684FEA4A
:102DD000420C06FA0CF7BC438F6807FA0CF727433E
:102DE000C7600C7904F00304022C12D1D40800EB64
:102DF000840CDCF820405707FF0E09FA07F824EA94
:102E00000804D1F8108008FA07F848EA0408CCF85A
:102E1000208004684FEA420C06FA0CF7BC430F7995
:102E200007F0030707FA0CF7274307604C6814F410
:102E3000403F70D03C4C276847F4804727602468A7
:102E400022F0030704F480440094384C07EB040C90
:102E5000DCF8084897074FEA177809FA08F7BC43E7
:102E6000334FB84202D1002724E054E0314FB8423A
:102E700001D101271EE0304FB84201D1022719E0ED
:102E80002E4FB84201D1032714E02D4FB84201D193
:102E900004270FE02B4FB84201D105270AE02A4F43
:102EA000B84201D1062705E0284FB84201D10727D3
:102EB00000E0082707FA08F72743CCF80878DAF883
:102EC00000405746D1F804C09C435FEACC2C00D5A3
:102ED0001C433C60DBF800405F46D1F804C09C43D3
:102EE0005FEA8C2C00D51C433C60DEF8004077463E
:102EF000D1F804C09C435FEA8C3C00D51C433C6085
:102F0000084F083F3C68D1F804C09C435FEACC3CC2
:102F100000D51C433C60521C102AFFF42FAFBDE8C3
:102F2000F88F0000083C0140443802400030014066
:102F3000000002400004024000080240000C024071
:102F4000001002400014024000180240001C024021
:102F5000426921EA02030A4043EA02418161704763
:102F60000AB1816170470904FBE7000001488068ED
:102F7000704700003C00002070B5040022D0206C97
:102F8000002518B92046E56300F078FB2420206472
:102F90002068016821F0010101602068016841F4A6
:102FA000004101602068016821F40041016000F0E7
:102FB000DBFC4D4A6168914201D84C4900E04C4924
:102FC000884201D2012070BD4A492368B0FBF1F16B
:102FD0005E6826F03F060E435E606368934206D942
:102FE0004FF4967359434FF47A73B1FBF3F12368AE
:102FF000491C1E6A26F03F063143196261689142FE
:1030000010D84900401EB0FBF1F2521CC2F30B0273
:10301000042A01D2042023E0B0FBF1F0401CC0F3ED
:103020000B001DE0A268EAB301EBC10303EB01163C
:10303000431EB3FBF6F35B1C43F480431B0548D0EF
:103040008AB301EBC10202EB0111401EB0FBF1F0AB
:10305000401CC0F30B0040F4804000BF40F400402F
:103060002168CA694CF6FF739A431043C861D4E9DA
:10307000071001432068026822F0C002114301607A
:10308000D4E9030101432068826848F2FF339A4380
:1030900011438160D4E9050108432168CA6822F020
:1030A000FF0201E00EE016E01043C86020680168EE
:1030B00041F001010160A56420202064256365645E
:1030C000002070BD01EB4106431EB3FBF6F35B1C11
:1030D000B4E70120C4E701EB4101401EB0FBF1F071
:1030E000401CC0F30B00B9E7A086010080841E00DD
:1030F00000093D0040420F002DE9FF4F81B0894695
:103100000446FFF733FF0546206C4FF000082028E7
:103110007BD1192301224B492046009501F068F824
:10312000002872D1E06B01286FD00120E063206895
:103130000168C90703D1016841F0010101602068FD
:10314000016821F400610160242020640026A66447
:103150003D48E0624FF0011B20272068016841F4E0
:10316000807101600095002259462046049B01F0C1
:103170003FF850B120680068C00502D54FF40070D8
:10318000A064032005B0BDE8F08F216809F0FE00BF
:103190000861FFF7EBFE2168054648694969C0F3FD
:1031A0004000C1F380214FF0A00A0FE0FFF7DEFEE0
:1031B000411B0498814200D808B9C4F840A0216896
:1031C00048694969C0F34000C1F38021226CA02AFC
:1031D00002D008B90029E9D0276420684169C943B1
:1031E000890713D4016841F40071016020684169C6
:1031F00080691923012213492046009500F0F8FF49
:10320000A0B927640020E663BCE719E0016841F437
:103210000071016021686FF4806048611923012208
:1032200008492046009500F0E3FF08B10120A9E716
:10323000039808F1010880458FD32764E663F5E71A
:1032400002209FE7020010000000FFFF2DE9F84F69
:103250001F4690468A460446DDF82890FFF786FE12
:103260000546206C202879D1192301223C492046AB
:10327000009500F0BDFF002870D1E06B01286DD0F3
:103280000120E06320680168C90703D1016841F0AB
:10329000010101602068016821F4006101602120C2
:1032A0002064102060640026A664C4F8248067852A
:1032B000608D20852B48E0622B464A4651462046C9
:1032C00000F04CFE90B9206841698069009036E0BA
:1032D0002A464946204601F061F850B1A06C042806
:1032E00004D12068016841F4007101600120BDE84B
:1032F000F88F606A216800780861606A401C60622B
:10330000618D491E6185218D491E89B22185226802
:103310005369DB435B070BD451B100781061606ADD
:10332000401C6062608D401E6085208D401E20859F
:103330002A464946204600F031FF0028CED1208D94
:103340000028C5D12068016841F400710160202087
:10335000206466640020E663C9E7FFE70220C6E751
:10336000020010000000FFFF2DE9FF4F83B09A46D6
:10337000DDE9118793460446DDF84090FFF7F6FD3E
:103380000546206C202873D119230122704920465C
:10339000009500F02DFF0028F5D1E06B012867D0E3
:1033A0000120E06320680168C90703D1016841F08A
:1033B000010101602068016821F4006101602220A0
:1033C0002064402060640026A664C4F82490A4F819
:1033D0002A80608D20855F48E062CDE90075534604
:1033E0005A462046049900F007FE002879D1208D26
:1033F000D0B1012821D00228206824D041698069F9
:103400000090208D032866D801282AD0524902282E
:103410003B464FF00002009557D08846204600F00A
:10342000E7FE00285DD13AE020684169816900919A
:10343000016841F4007101607DE02068016821F4B9
:1034400080610160F0E7016821F48061016020681B
:10345000016841F400610160206841698069009061
:1034600069E02A463946204600F065FF90BB55E0EA
:103470006BE02068016841F4007101602068006918
:10348000616A0870606A401C6062218D491E218556
:10349000618D491E618521680969017042E02068DB
:1034A000016821F48061016020680069616A087028
:1034B000606A401C6062208D401E2085608D401E29
:1034C00060853B46002241460095204600F090FE74
:1034D00000B9CEE705E02A463946204600F02BFF2A
:1034E00018B1012007B0BDE8F08F20680069616A5B
:1034F0000870606A401C6062208D401E81B2218588
:10350000608D401E608520684269D243520712D404
:10351000032903D1016821F48061016020680069FA
:10352000616A0870606A401C6062208D401E2085C0
:10353000608D401E6085208D00287FF462AF2020C2
:10354000206466640020E663CCE70220CAE700003E
:10355000020010000000FFFF040001002DE9FF4FF2
:1035600083B09A46DDE9119793460446DDF8408022
:10357000FFF7FCFC0546206C202879D11923012295
:103580003C492046009500F033FE002870D1E06BE6
:1035900001286DD00120E06320680168C90703D1CC
:1035A000016841F0010101602068016821F40061B7
:1035B000016021202064402060640026A664C4F8D5
:1035C0002480A4F82A90608D20852B48E062CDE904
:1035D000007553465A462046049900F08BFD70B999
:1035E00030E02A463946204600F0D8FE58B1A06C9B
:1035F000042804D12068016841F4007101600120B1
:1036000007B0BDE8F08F606A216800780861606AE1
:10361000401C6062218D491E89B22185628D521E37
:10362000628522685369DB435B070BD469B100787C
:103630001061606A401C6062208D401E2085608D94
:10364000401E6085208D0028CBD12A463946204671
:1036500000F0A4FD0028CAD12068016841F400717F
:1036600001602020206466640020E663C8E7FFE76D
:103670000220C5E7020010000000FFFFF0B587B090
:10368000044614216846FDF70EF82768204CDFF841
:103690007CC01F4912220123032504261D48103433
:1036A000674515D10F6847F002070F60096801F000
:1036B00002010591C0218DE86E006946FFF750FBBD
:1036C000206840F400102060206800F4001019E029
:1036D000DFF844C0674516D10F6847F002070F6056
:1036E000096801F0020105914FF440618DE86E0018
:1036F0006946FFF735FB206840F4800020602068B1
:1037000000F48000059007B0F0BD000000540040B8
:1037100030380240000402400058004002488168EE
:1037200042681144816070473C0000200B4810B58E
:10373000016841F400710160016841F48061016039
:10374000016841F480710160032000F061F80F20EE
:1037500000F006F800F024F8002010BD003C024004
:1037600070B50D4D04464FF47A716868B1FBF0F006
:103770000A490968B1FBF0F000F0FCFA48B9102CD6
:1037800007D200222146501E00F022F800202C60B3
:1037900070BD012070BD00003C00002048000020EA
:1037A0000A4808B5016841F480410160006800F4EE
:1037B000804000900548001F016841F08051016081
:1037C000006800F08050009008BD000044380240BE
:1037D000F0B40E4B1B680C46C3F30223C3F107057C
:1037E000042D00D90425191D072901D2002300E06A
:1037F000DB1E012606FA05F1491E214099409E4034
:10380000761E16403143F0BC01F0E8B90CED00E043
:10381000064900F0070208684FF6FF03184040EA27
:103820000220034A10430860704700000CED00E0DE
:103830000000FA052DE9F0470E46050065D0DFF8D7
:103840001481D8F80000F7B200F00700B04207D2A8
:1038500088F80070D8F8000000F00700B04254D19A
:1038600028683D4C810712D5400703D5206840F4F5
:10387000E05020602878000703D5206840F46040BD
:1038800020602068A96820F0F000084320602878B4
:10389000C0072DD0304968680839012812D00228A5
:1038A00013D0032811D00968890700292DDA21686F
:1038B00021F0030101432160FFF758FB814641F2EB
:1038C000883A0EE009688903EFE709688901ECE7A7
:1038D000FFF74CFBA0EB0901514502D90320BDE8DD
:1038E000F0872068696800F00C00B0EB810FEFD121
:1038F000D8F80010404601F00701B14207D907701F
:10390000006800F00700B04201D00120E7E7287806
:10391000400705D52068E96820F4E050084320609E
:103920002878000706D52068296920F4604040EA1D
:10393000C100206000F038F82168084AC1F3031183
:10394000515CC8400649086006480068FFF708FF58
:103950000020C4E7003C024008380240345300080D
:10396000480000203C000020044805490068096820
:10397000044AC1F38221515CC840704748000020CE
:1039800008380240445300080448054900680968A3
:10399000044AC1F34231515CC840704748000020DE
:1039A0000838024044530008154810B5006810F06C
:1039B0000C02144813D04110042A0FD0082A0ED14B
:1039C0000F4C241F2268236802F03F025B0207D5D8
:1039D0002068C0F38810A0FB010106E0084610BD76
:1039E0002168C1F38811A1FB00010023FCF74CFC06
:1039F0002168C1F30141491C4900B0FBF1F010BD41
:103A0000083802400024F4002DE9F84F04006ED07D
:103A10002078DFF84C93C007A9F104054AD009F1DA
:103A200004000168C1F38101012908D00068C0F3D6
:103A3000810002280AD1D9F80000400206D5286882
:103A4000800337D560680028E1D033E06068B0F5C6
:103A5000803F10D0B0F5A02F286810D020F480301F
:103A60002860286820F4802028606068A8B1FFF7EB
:103A70007DFA06460DE0286840F48030F4E740F413
:103A800080202860F7E700BFFFF770FA801B6428EA
:103A900073D828688003F7D50CE0FFF767FA06466D
:103AA00005E000BFFFF762FA801B6428F0D82868A1
:103AB0008003F7D42078DFF8AC8280074FF0000A4B
:103AC0003ED5A748001D016811F00C0F08D0006812
:103AD000C0F3810002280BD1D9F80000400207D4BE
:103AE0002868800716D5E068012800D112E033E18C
:103AF000E068B8B10120C8F80000FFF737FA0646C1
:103B000005E000BFFFF732FA801B0228C0D8286802
:103B10008007F7D52868216920F0F80040EAC10045
:103B200028600DE0C8F800A0FFF720FA064604E080
:103B3000FFF71CFA801B02281FD828688007F7D4DB
:103B40002078000722D5864F87486169703771B1A8
:103B500001210160FFF70AFA064604E0FFF706FAC2
:103B6000801B022809D838688007F7D50EE0C0F816
:103B700000A0FFF7FBF9064605E082E0FFF7F6F943
:103B8000801B02287DD838688007F7D4207840074A
:103B900068D5DFF8CCB100270BF13C0BDBF8000057
:103BA000C0000BD4DBF8001041F08051CBF80010BE
:103BB000DBF80000012700F0805000906B4E306869
:103BC000C00510D4306840F480703060FFF7CEF943
:103BD000009005E0FFF7CAF90099401A022850D872
:103BE0003068C005F6D55E4EA0686C3601280FD04F
:103BF0000528306810D020F001003060306820F0D7
:103C000004003060A068B8B1FFF7B0F900900FE091
:103C1000306840F00100F4E740F004003060F7E75E
:103C2000FFF7A4F90099411A41F28830814266D821
:103C300030688007F4D50EE0FFF798F9009007E0B0
:103C4000FFF794F90099411A41F28830814256D821
:103C500030688007F4D42FB1DBF8001021F08051D8
:103C6000CBF80010A069C8B33D49091D0968C1F32C
:103C7000810102294AD00228504607D0C8F86000C6
:103C800000E03CE0FFF772F904463BE04746C8F825
:103C90006000FFF76BF9064605E000BFFFF766F925
:103CA000801B02282BD828688001F7D4D4E90701AB
:103CB0000843A16A2E4A490802EB0141626A41EABF
:103CC0008211084394F82C1040EA0161C9F80010F1
:103CD00001203866FFF74AF9044606E03EE000BFDF
:103CE000FFF744F9001B022809D828688001F7D59E
:103CF00034E000BFFFF73AF9001B022802D9032085
:103D0000BDE8F88F28688001F4D427E00128F7D0B7
:103D1000D9F80000E26900F4800191421CD1226AC6
:103D200000F03F01914217D147F6C071626A01402D
:103D3000B1EB821F10D1A26A4FF0FF3300F4403183
:103D400003EB5202B1EB024F06D194F82C1000F0B5
:103D50007060B0EB016F01D00120D1E70020CFE708
:103D60000438024000004742800E47420070004085
:103D70000000FFFF10B5401EB0F1807F01D301208D
:103D800010BD4FF0E02460610F21601700F026FFA6
:103D90000020A06107202061002010BD70B5040044
:103DA00003D0606C002510B105E0012070BD2046F5
:103DB000256400F021F8242060642068C16821F4A3
:103DC0000051C160204600F01FFE2068016921F407
:103DD000904101612068416921F02A014161206818
:103DE000C16841F40051C160E56420206064A064B2
:103DF0006563002070BD0000F0B587B00446142153
:103E00006846FCF750FC1F4F236800221E4902241D
:103E1000032507261D48BB4213D11B4B14331F68D3
:103E200047F010071F601B6803F0100305930B6831
:103E300043F001030B60096801F00101059169027B
:103E400015E0134FBB421AD10F4B10331F6847F4D4
:103E500000371F601B6803F4003305930B6843F0C1
:103E600001030B60096801F0010105910C21CDE906
:103E7000001402AB694683E86400FEF771FF07B0E7
:103E8000F0BD000000100140303802400000024048
:103E9000004400402DE9F8430446406C984616461D
:103EA0000D46202802D00220BDE8F8837DB176B10E
:103EB0000020E06421206064FFF758F8A684814662
:103EC000E684A0682027B0F5805F02D003E00120DF
:103ED000EAE7206910B12E4600250EE000260CE02E
:103EE0008021204600F016FEA8B9BEB116F8010BDD
:103EF00021684860E08C401EE084E08C4B464FF027
:103F00000002CDF800800028EAD14FF040012046A1
:103F100000F000FE38B167640320C5E735F8020BF6
:103F2000C0F30800E4E767640020BDE7FEE701682E
:103F30004A69D24352050ED46FF480624A6100216F
:103F40000163202202644164826C42F004028264B4
:103F5000C16301207047002070470000F8B5044697
:103F6000C06A1E460D461746082807D0012805D00E
:103F700010F5803F02D0206B122804D12068016820
:103F800041F480710160134600224FF00111204678
:103F9000009600F02DF940B120680068C00502D5F8
:103FA0004FF40070A0640320F8BD2069B0F5804F85
:103FB0000ED00620216800EAD51040F0F00008611C
:103FC00033463A460B49204600F05AF978B902E0E8
:103FD00005F0FE0000E0E8B22168086105493346BB
:103FE0003A46891F204600F04BF90028DCD001201A
:103FF000F8BD0000080001002DE9F84F04460068F4
:1040000089460B9D01689846174641F4806101601E
:104010002068016841F48071016000954FF0011B38
:104020000022594620460A9B00F0E2F84FF4007A3D
:1040300040B120680068C00501D5C4F848A003203D
:10404000BDE8F88F216809F0FE0008612B46284979
:1040500020460A9A00F014F9F0BB20684169806993
:1040600000902A4620460A9900F098F940B1A06CC9
:1040700004283AD12068016841F40071016034E0FD
:10408000FEB2B8F1010F09D02168380A08612A464A
:1040900020460A9900F082F90028E8D120680661DC
:1040A0002A4620460A9900F079F90028DFD12068D5
:1040B000016841F480710160009500225946204654
:1040C0000A9B00F095F80028B3D1216809F0FF00A1
:1040D00040F00100086100E007E02B46044920465B
:1040E0000A9A00F0CDF80028AAD00120A8E7000025
:1040F000020001002DE9F843044600680D46DDE9A1
:10410000089701689846164641F4807101604B4655
:1041100000224FF001112046009700F069F848B1E5
:1041200020680068C00502D54FF40070A064032029
:10413000BDE8F883216805F0FE0008613B464A4669
:104140001549204600F09CF888B9206841698069CB
:1041500000903A464946204600F020F948B1A06C4C
:10416000042804D12068016841F400710160012035
:10417000DEE7F5B2B8F1010F09D02168300A086115
:104180003A464946204600F009F90028E7D1206860
:1041900005610020CCE700000200010070B5164662
:1041A0000D4604461DE02046FFF7C1FE08B1012080
:1041B00070BD681C15D0FEF7D9FE801BA84200D840
:1041C0007DB920684069C04340070AD500202063BC
:1041D000202121646064A16C41F02001A164E063AE
:1041E000E5E720684069C0434007DCD4002070BD8B
:1041F0002DE9F047984617460D460446C1F3074699
:10420000DDF8209029E000BFB8F1FF3F25D0FEF790
:10421000ADFEA0EB0901414502D8B8F1000F1CD159
:104220002068012E15D0806925EA00000004000CEA
:1042300011D00020B84210D1002020632021216439
:104240006064A16C41F02001A164E0630120BDE83D
:10425000F0874069E8E70120ECE72068012E0BD0E9
:10426000D0F8180025EA00000004000C06D0002059
:10427000B842C9D00020EAE74069F3E70120F7E738
:104280002DE9F047984616460D4604464FF00009C2
:104290004FF0200AC1F3074721E020684069C0437E
:1042A000400513D42068016841F400710160216861
:1042B0006FF4806048614846C4F83090C4F840A06C
:1042C000C4F84490A16C41F004011EE0701C06D0BB
:1042D000FEF74CFEA0EB0800B04203D816B1012F48
:1042E0001ED020E02068012F14D0806925EA00004C
:1042F0000004000C17D04846C4F83090C4F840A021
:10430000C4F84490A16C41F02001A164E063012055
:10431000BDE8F087406925EA00000004000CEAD1FE
:104320002068406901E02068806925EA00000004F7
:10433000000CB2D1ECE72DE9F041002590460E4685
:104340000446202723E04069C043C00608D4216802
:104350006FF010004861256327646564A06C11E06C
:10436000FEF704FEA0EB0800B04200D87EB920683A
:104370004069C04340060AD5256327646564A06C84
:1043800040F02000A0640120E563BDE8F0812068D2
:104390004169C9434906D6D40020F6E770B51646F0
:1043A0000D4604461DE02046FFF7C1FD08B101207F
:1043B00070BD681C15D0FEF7D9FD801BA84200D83F
:1043C0007DB920684069C04300060AD500202063FB
:1043D000202121646064A16C41F02001A164E063AC
:1043E000E5E720684069C0430006DCD4002070BDCA
:1043F00000F02EB8AFF3008038B500208DF8000033
:1044000001226946752000F065FE4FF0FF34E0B9E7
:1044100000216B2000F070FEB8B90A20FEF78EFC78
:104420000721192000F068FE78B903211A2000F056
:1044300063FE50B900211B2000F05EFE28B9002168
:104440001C2000F059FE002800D0204638BD000096
:104450002DE9FF4104004FF0FF3505D00E226946DB
:104460003B2000F037FE18B1284604B0BDE8F081CB
:104470009DF800009DF80750000203B29DF801006E
:104480009DF80B6003439DF8020000EE103A000215
:1044900002B29DF80300F8EEC00A02439DF8040042
:1044A0009FED320A000201B29DF8050020EE801A4D
:1044B00001439DF80600DFED2E0A000200B22843FA
:1044C0009DF8085021EE201A2D022FB29DF80950B8
:1044D0009DF80DC02F439DF80A502D022DB2354393
:1044E0009DF80C6084ED001A01EE102A360236B2F7
:1044F000B8EEC11A46EA0C0621EE001A21EE201A87
:1045000084ED011A01EE101AB8EEC11A21EE000A6C
:1045100020EE200A84ED020A00EE107AF8EEC00ABE
:104520009FED140A80EE801A00EE905AF8EEE00A31
:1045300084ED031A80EE801A00EE906AF8EEE00A2D
:1045400084ED041A80EE801A00EE100A0020F8EEC6
:10455000C00A84ED051A9FED081A80EE810ADFED8E
:10456000070A30EE200A84ED060A7EE70000803854
:104570000AE81C41000003430000AA43B81E12428F
:104580002DE9F04186B014216846FCF78CF82B48E1
:104590000024016841F080010160016801F08001A0
:1045A0000591016841F001010160016801F001011C
:1045B0000591016841F002010160016801F002010A
:1045C0000591016841F004010160016801F00401F6
:1045D0000591016841F0080101600068184F00F082
:1045E00008004FF480750590002229463846FEF7F2
:1045F000B7FCDFF850802E01002231464046FEF71E
:10460000AFFC00950125CDE9015469463846039475
:10461000FEF7A6FBA802CDE90004694638460294DD
:10462000FEF79EFB0096CDE901546946404603948F
:10463000FEF796FB06B0BDE8F0810000303802407E
:1046400000080240000C02400D4810B50B49016003
:104650000C49416000214FF480428160C0E903129F
:1046600041618161C1610162FEF786FC002803D0CF
:10467000BDE81040FEF799BA10BD0000005400409C
:104680004C000020A08601000D4810B50B490160C8
:104690000C49416000214FF480428160C0E903125F
:1046A00041618161C1610162FEF766FC002803D0AF
:1046B000BDE81040FEF779BA10BD00000058004078
:1046C000A8000020A08601000C4810B50A4901602E
:1046D0004FF4E1314160002181600C22C160C0E9EA
:1046E00004128161C161FFF759FB002803D0BDE8C6
:1046F0001040FEF75ABA10BD00100140040100201E
:104700000C4810B50A4901604FF416514160002170
:1047100081600C22C160C0E904128161C161FFF7B0
:104720003DFB002803D0BDE81040FEF73EBA10BDA7
:104730000044004054010020FEE7FEE700F058B8B6
:1047400010B5044600F014F8002106A2084600F057
:1047500017F822461021002000F012F8BDE81040A2
:1047600000F09AB85354415455533A007047000032
:104770004FF480610148FBF774BF0000DC010020AA
:104780002DE9F74F5FEA020A81462FD02AE000BFE9
:10479000B9F17A0F2ADC019E00F006FC8346002561
:1047A00000241BF8058009EB050700BF28FA04F078
:1047B00000F001023119384600F0B4FC641C082CEA
:1047C000F4DB6D1C052DEBDB00243119002209F10F
:1047D000050000F0A7FC641C082CF6DB09F10609B3
:1047E0000AF1010A9AF800000028D1D1BDE8FE8F35
:1047F0002DE9F04188B01C221DA16846FBF7FFFEA1
:104800006420FEF79BFA21480025214C00684FF0F8
:10481000FF3807AF2E46079037F8151032230222D3
:104820001C48FEF769FC48B16D1C022DF4D32680AC
:1048300066604046A66008B0BDE8F08137F8150014
:104840002080022000256F466060785D00F086FCC5
:1048500010B14046A660EEE76D1C192DF5D303207C
:10486000A060FFF785FF00F017F80020E3E70000E5
:10487000AED580A83FD30040A1C8DA12817FA4A69C
:10488000D9F1DB408D14AD8BAF000000B8520008A9
:1048900030000020A800002070B5194EA2B00024FE
:1048A00004F1B000E501C0B200F058FC002824D1AA
:1048B000022000F053FC00281FD1102000F04EFC15
:1048C00000281AD10F48802241193588002D14D0B4
:1048D00040208DF804000DF10500FBF74BFE64202D
:1048E0000090812301AA29460748FEF7AFFC002863
:1048F00003D1641CE4B2082CD2D322B070BD0000F6
:1049000030000020DC010020A80000207047FEF7E6
:1049100005BF000030B593B030216846FBF7C3FEF9
:1049200014210CA8FBF7BFFE1E480025016841F0CA
:1049300080510160006800F0805011901A480168B1
:1049400041F4804101600068022400F4804011902D
:1049500001200090000401908001CDE9064008206C
:1049600008904FF4A870CDE9090404200B90684624
:10497000FFF74AF808B172B6FEE70CA90F2081E8EC
:1049800031004FF4A0500F904FF48050109005214B
:104990000CA8FEF74FFF002801D072B6FEE713B057
:1049A00030BD0000403802400070004002480168FD
:1049B00041F470010160704788ED00E001680C313E
:1049C00051E8002F22F4907241E80023002BF5D12A
:1049D0000168143151E8002F22F0010241E8002360
:1049E000002BF5D1016B012909D101680C3151E887
:1049F000002F22F0100241E80023002BF5D12021E6
:104A0000816400210163704770B504460068016944
:104A1000E26821F44051114301612169A068E26913
:104A200008436169114308432168CA6849F20C636D
:104A30009A430243CA6020684169A26921F4407127
:104A40001143416131492068884202D0304988428F
:104A500002D1FEF799FF01E0FEF786FFE26900232D
:104A6000192164253226B2F5004F626828D0A0FBD8
:104A70000101930F9200FBF707FC0146B0FBF5F034
:104A80006FF01802504301EB800006EB0010B0FB02
:104A9000F5F000F0F002B1FBF5F002EB0012B1FB13
:104AA000F5F06FF01803584301EB800006EB00109F
:104AB000B0FBF5F000F00F0021681044886070BD75
:104AC000A0FB010192185B41FBF7DEFB0146B0FB46
:104AD000F5F00201B1FBF5F06FF01803584301EB5C
:104AE000800006EBC000B0FBF5F000F0F80002EB30
:104AF0004002B1FBF5F0584301EB800006EBC0002B
:104B0000B0FBF5F000F00700D6E700000010014010
:104B1000001401402DE9F843984617460D46044617
:104B2000089E23E0701C21D0FEF720FAA0EB0800BD
:104B3000B04219D8C6B12068C168490716D5802D82
:104B400014D0402D12D00168C94309070ED4016862
:104B50000025406800902046FFF730FF0820E06401
:104B600001202564BDE8F8830320FBE72068006886
:104B700035EA000004D00020B842D3D00020F1E78D
:104B80000120F9E7FEE703B401984100009850EADC
:104B9000C12018BF04204A0D18BF40F0010040F2A8
:104BA000FF72B2EB515F08BF40F00200012808BF5E
:104BB000052002B070474100080218BF04200A0E09
:104BC00018BF40F001004FF07F4232EA010108BFF8
:104BD00040F00200012808BF052070470907090EB0
:104BE000002804DB00F1E02080F80014704700F09A
:104BF0000F0000F1E02080F8141D704710B510EE92
:104C0000104A4FF019406849002200EB44002DED96
:104C1000028B884257D8DFED650A14F0004F60EE32
:104C2000200A14BFBEEE001AB6EE001A71EE200A7A
:104C3000FDEEE00A10EE900A00EE900AF8EEE00AAF
:104C40009FED5B1A00EEC10A9FED5A1A00EEC10AF1
:104C5000DFED590A9FED591A00EE201ADFED580AD0
:104C600040EE010A9FED571A574B00F0030100EE8A
:104C7000201A21EE000A7B4403EB8103D3ED000AE6
:104C8000524B7B4403EB810393ED001A504B41EEF2
:104C9000000A7B4403EB8101801091ED000A70EE65
:104CA000800AEABB00EE100AB8EEC01ADFED491A1E
:104CB0009FED490ABDEC028B01EE210ABCEEC00A51
:104CC00020EE200A10BD4FF0FF40A0431BD04FF054
:104CD000CE40B0EB440F82BFB7EE000ABDEC028BB2
:104CE00010BD3E48B0EB440F28BF012293D20220F2
:104CF000FBF708FD14F0004F15D0BDEC028BBDE8AA
:104D0000104000F07BB814F5000F02BF9FED340A8D
:104D1000BDEC028B10BDBDEC028BBDE8104000E085
:104D200007E000F05FB8BDEC028BBDE8104000F07A
:104D30005DB800EBD07359104FF07E5202EBC151B9
:104D400000EE101AA0EB630002EBC05060EE200AE8
:104D500000EE100A20EE208A18EE100A88B118EE34
:104D6000100AB0F1FF4F15D018EE100AFFF723FF1D
:104D7000042808BF00F042F8B0EE480ABDEC028BF0
:104D800010BD0220FBF7BEFCBDEC028BBDE810405D
:104D900000F034B80220FBF7B5FCBDEC028BBDE897
:104DA000104000F023B800000000501E3BAAB8409D
:104DB0000070313EF4FD053712BB2A3D12BB2A3E7E
:104DC000FFFFFF3EFFFF7F3FE2060000E606000018
:104DD000B60600000000004B00007E4E0000A085DB
:104DE0000000000030EE000A704700009FED020A4C
:104DF00020EE000A70470000000000709FED020ADC
:104E000020EE000A704700000000001030380A2829
:104E100001D20120704700207047000070B50446A1
:104E20002DED028B1C2290ED000A2E48214665696B
:104E3000D0ED000A90ED011A30EE600AD4ED010ABF
:104E400070EEC10AB0EEC00A90ED021AF0EEE00A70
:104E500030EE200AD4ED020A70EEC10AF0EEE00A4C
:104E600030EE208AFBF7CBFB18EE101A1E4A1F48C3
:104E700091421EDA94ED030A1D49B0EEC00A10EE0D
:104E8000102A8A4215DA94ED040AB0EEC00A10EE38
:104E9000102A8A420DDA94ED050AB0EEC00A10EE2F
:104EA000102A8A4205DA0121C1600846BDEC028B56
:104EB00070BD104A0221954202DDC1600320F5E772
:104EC0000D4A954202D9C1600420EFE718EE102A7E
:104ED0000A4B9A4202DDC1600220E7E70021C1606F
:104EE0000846E3E7C00100206666E63E1C0000209D
:104EF000000040410000A0420000A0C26666E63FFC
:104F0000F0B5284C064687B0607858B396ED000A95
:104F10008DED000A96ED010A8DED010A96ED020A6B
:104F20008DED020A96ED030A8DED030A96ED040A53
:104F30008DED040A96ED050A8DED050AFEF716F8CB
:104F400021690025401A40F6B8310127884214D360
:104F5000A07890B1E11C6846FDF72EF9C0B1062893
:104F600014D008E03046FFF759FF07B0F0BDA77036
:104F700009E0062807D06570F4E76846FDF78CF96C
:104F80000528F6D1F3E70020E560EEE7A570FAE723
:104F9000E078502802D20220E060E6E70120E760D6
:104FA000E3E700001C000020522856D019DC4928F5
:104FB00041D00EDC432835D006DC20282DD03A28FD
:104FC0006CD0412829D12AE045282ED0472824D169
:104FD0002EE04B38052820D2DFE800F03033363998
:104FE0003C00652848D00CDC55283FD004DC532811
:104FF00036D0542811D136E057283AD05F280CD14A
:105000004FE0732841D004DC672838D0722804D1DF
:1050100038E074283CD075283DD02348704722489A
:10502000401D704720480A3070471F480F307047B6
:105030001D48143070471C48193070471A481E30FC
:105040007047194823307047174828307047164872
:105050002D3070471448323070471348373070474E
:1050600011483C3070471048413070470E48463078
:1050700070470D484B3070470B48503070470A4816
:105080005530704708485A30704707485F307047BE
:1050900005486430704704486930704702480A3850
:1050A00070470148401F7047C6520008FEF73EFB9C
:1050B000FFF730FCFFF764FAFFF7C6FAFFF7E4FAF0
:1050C000FFF702FBFFF71CFBFDF7E6FCFDF7F0FC2A
:1050D000FCE700000EB564238DE80E0002460123B4
:1050E000D0210448FEF740F9002801D04FF0FF30EE
:1050F0000EBD00004C00002003B583B064230122E4
:1051000004A98DE80E0013460246D0210448FEF79C
:1051100025FA002801D04FF0FF3005B000BD000097
:105120004C000020002816DB002914DB802812DA4E
:10513000402910DACB0800EBC31083B201F007015D
:1051400001208840C1B20448002AC25C01D00A4351
:1051500000E08A43C2547047DC0100201CB50021E6
:1051600001918DF8050008484FF0FF34018841B1E6
:1051700064200090022301AA0448FEF767F8002883
:1051800000D020461CBD000030000020A8000020F8
:1051900010B500290AD00878002807D005487844BF
:1051A000FBF776FE002801D0002010BD02487844AD
:1051B00010BD0000260400001E0400000808A0F531
:1051C00000114FEA3101704743004FEAD30C4FEA18
:1051D0003C0C43401FBF40070CF1605113F0FE4FE1
:1051E00070471CF0006F03D100200CF000417047A5
:1051F0000CF0004343EA507010B540EACC0000F0D8
:105200000EF800BF000000924FEA0001FFF7D6BF82
:105210004FF000414FF00000A1F5002170470EF162
:10522000020E2EF0030E5EF8044B244204D44FEA23
:105230004102B2F17F4F11D84FEA4003B3F17F4FE3
:105240000CD80ED14FEAD07CB2F17F4F0CEB4C0C56
:105250000CF1020C08BF4CEBD17C04E04FF0080CC1
:1052600001E04FEAD17C0CEB4C0324FA03F404F088
:105270000704B4F1040C06D20EEB840CBDE8104018
:105280004CF0010C6047DFE80CF0070802024FF019
:105290000040A0F5800010BD0846420018BFD2F1C2
:1052A000807288BF00F0004010BD4FF04070E1EE0A
:1052B000100A7047FBF75EBB78007A0000363600B4
:1052C00000404040404000000000007E1111117E6F
:1052D0003E414141227F494949413E4149497A0085
:1052E000417F41007F081422417F404040407F02BF
:1052F0000C027F7F0204087F3E4141413E7F091935
:105300002946464949493101017F01013F4040405A
:105310003F7F2018207F385454541818A4A4A47C2C
:105320007C080404084854545424043F4440203C5E
:105330004040207C00000000000000000102030447
:105340000607080900000000010203040000803F76
:105350000030983F0000B53F0040D73F00000000FC
:10536000320A7E397F661E395B991F390000803F03
:10537000F037983FF304B53FFD44D73F02400000AB
:10538000000000A00000000005400000000000C870
:10539000000000000C4000000000409C00000000E5
:1053A000194000000020BCBE000000003440000096
:1053B000BFC91B8E00000004B5400000504BCFD089
:1053C0006607E2CF010000006C4100003E8251AA56
:1053D000DFEEA73401000000D9420000DCB5A0E2F6
:1053E0003A301F97FFFFFFFFB4450000FD25A0C81E
:1053F000E9A3C14FFFFFFFFFFF3F00000000008057
:1054000000000000FF3F00000000008000000000DE
:105410000100000006000000229BEABD878896BEBE
:105420006EDA70BC7122C1BD1C7781BE971412BFA9
:105430009F2449BE955FEABE7B9F7A3E8664D93E33
:10544000A4D9C6BCA958E8BD8046133A00E0983AF2
:105450009809853AE0D5073B00D8B8B900A42DBA21
:10546000004CCCB9001A41BA006EDCB9003E51BA0A
:1054700020583FBA80BFB9BA2AA1813922F3473AEE
:10548000FF3A5B3A7B63FE3AF4C63FB9117CCCB875
:105490009363363BD12DBF3B145E0F3B5328983BA3
:1054A000B3C78DBB8F6209BC191BAD3A464D2A3B71
:1054B000912C8B3A365E083B948484BAA95207BB80
:1054C0004AC3D4BADD9057BBC22C28BB4B94A9BBAE
:1054D0008DCC33BB9733B5BBDFDE843A24A80D3BBC
:1054E00060C2AD3A5E8B363BE5AD09BB424985BB38
:1054F000D0AC60BA471ACFBADA9611BBB8328DBBBE
:1055000004D9A73A38A2303BE08B823AE70DFD3A46
:105510004DBFBD3A38BA393B7CD135BA55DBBDBA3F
:105520009624DCBA822860BB5456E5BAC05B69BBDE
:1055300081DFC0B7490BE1B8D028043BE1048E3BC2
:10554000CFCF25B9B95781B774F704BA5F0D3BBA0D
:1055500022F1943A86A8283B9D3B173A62A9BE3AAD
:10556000A64AD6BBD15C51BC1459244104752441D0
:10557000220B2541883F2441AAB124415A322441BB
:105580002122254108AC94C00C022340B7AC8D40C9
:1055900003E49EBE57C7A4BF4700000007000000F9
:1055A00000000000E0550008000000204C00000052
:1055B000C40100082C5600084C000020540E0000C6
:1055C000E00100081C00000043000000F8FFFFFF9E
:1055D0000C0000000E0000000F0000002E00000074
:1055E00000000000000000000000000000000000BB
:1055F00000000000000000000000000000000000AB
:10560000000000000000000000000000000000009A
:10561000000000000000000000000000100000007A
:0C56200001000000000000000024F40065
:040000050800018965
:00000001FF
